:020000040800F2
:1000000078A20020A90200084B540008434D0008C4
:1000100049540008190D00088D6A0008000000000E
:10002000000000000000000000000000E5010008E2
:100030004B0E000800000000410200086D6100083E
:10004000C3020008C3020008C3020008C30200087C
:10005000C3020008C3020008C3020008C30200086C
:10006000C3020008C3020008C3020008C30200085C
:10007000C3020008C3020008C3020008C30200084C
:10008000C3020008C3020008C3020008C30200083C
:10009000C3020008C3020008C3020008C30200082C
:1000A000C3020008C3020008C3020008C30200081C
:1000B000C3020008C3020008C3020008C30200080C
:1000C000C3020008C3020008C3020008C3020008FC
:1000D000C3020008C3020008C3020008C3020008EC
:1000E000C3020008C3020008C3020008C3020008DC
:1000F000C3020008C3020008C3020008C3020008CC
:10010000C3020008C3020008C3020008C3020008BB
:10011000C3020008C3020008CD620008C302000841
:10012000C3020008C3020008C3020008C30200089B
:10013000C3020008C3020008C3020008C30200088B
:10014000C3020008C3020008C3020008C30200087B
:10015000C3020008C3020008C3020008C30200086B
:10016000C3020008C3020008C3020008C30200085B
:10017000C3020008C3020008C30200080000000018
:10018000C3020008C3020008C3020008C30200083B
:10019000C3020008C3020008C3020008C30200082B
:1001A00051520008C3020008850D0008C302000870
:1001B000C3020008C3020008C3020008C30200080B
:1001C000C3020008C3020008DFF814D000F0E6FB09
:1001D00000F0D8F800480047A9DD000800F0DFF97A
:1001E00078A200202D4B19680868B0E8F04F80F322
:1001F0000988BFF36F8F4FF0000080F311887047BC
:100200000000000008480068006880F308884FF08C
:10021000000080F3148862B661B6BFF34F8FBFF35E
:100220006F8F00DF00BF00BF08ED00E0DFF80C00BB
:10023000016841F470010160704700BF88ED00E083
:10024000EFF30980BFF36F8F144B1A681EF0100F85
:1002500008BF20ED108A20E9F04F106009B44FF07C
:10026000500072B680F31188BFF34F8FBFF36F8FCA
:1002700062B60EF0CDFB4FF0000080F3118809BC90
:1002800019680868B0E8F04F1EF0100F08BFB0EC16
:10029000108A80F30988BFF36F8F70476C000020CD
:1002A000EFF3058070470000064880470648004786
:1002B000FEE7FEE7FEE7FEE7FEE7FEE7FEE7FEE716
:1002C000FEE7FEE779620008C90100082DE9F05F4A
:1002D0000546002092469B468846064681464024B5
:1002E0001BE0284641464746224600F042F9534665
:1002F0005A46C01A914110D311461846224600F0C2
:1003000029F92D1A67EB01084F46224601200021EA
:1003100000F020F917EB00094E41201EA4F1010462
:10032000DFDC484631462A464346BDE8F09F40EAB6
:1003300001039B0703D009E008C9121F08C0042A63
:10034000FAD203E011F8013B00F8013B521EF9D24A
:100350007047D2B201E000F8012B491EFBD2704772
:100360000022F6E710B513460A4604461946FFF781
:10037000F0FF204610BD421C10F8011B0029FBD1E4
:10038000801A704770B5054C054D03E02068204485
:100390008047241DAC42F9D170BD000040BB02086B
:1003A0004CBB02082DE9F041074615460E461020C9
:1003B0000DF080FD04000AD06760C4E9026500F01A
:1003C000E9F80168216004600020BDE8F0810120A7
:1003D000FBE72DE9F04D81EA030404F0004B21F026
:1003E000004514464FF0000A23F0004150EA050290
:1003F00020D054EA01021DD0C5F30A570246C5F3C6
:100400001303C1F31300C1F30A5640F4801543F4FB
:100410008013A7EB0608101BD64608F2FD3873EBD5
:10042000050002D308F1010801E092185B41B8F120
:10043000000F03DA00200146BDE8F08D00204FF4E4
:100440008011064684460EE0171B73EB050705D3A3
:10045000121B63EB050306434CEA010C49084FEA03
:10046000300092185B4150EA0107EDD152EA0300D7
:1004700012D082EA040083EA0501084305D0101B6C
:10048000AB4106D20122002306E000224FF00043D8
:1004900002E06FF0010253101AEB06004CEB08511A
:1004A00010EB0A0041EB0B01BDE8F04D00F0CFB8B6
:1004B0000EB540F2334102910021CDE900110A4608
:1004C0000B4600F0D3F803B000BD00F0004230F05E
:1004D00000400AD0C10D01F56071C0F3160042EA78
:1004E0000151C20840071143704700200146704780
:1004F00001F0004330B421F0004150EA010206D07F
:100500000A0DA2F56072C1F31301002A02DC30BCAF
:1005100000207047440F44EAC104C100E01830BC19
:1005200000EBC25000F05CB830B50B46014600202D
:100530002022012409E021FA02F59D4205D303FAA5
:1005400002F5491B04FA02F52844151EA2F1010226
:10055000F1DC30BD202A04DB203A00FA02F1002051
:1005600070479140C2F1200320FA03F319439040F1
:100570007047202A04DB203A21FA02F0002170475C
:1005800021FA02F3D040C2F12002914008431946FB
:100590007047000000487047A401002070472DE913
:1005A000F0410646FFF7F6FF8046454613E016B1D8
:1005B000E068B0420ED120682860D4E90101D8F883
:1005C0000070884720460DF059FAD8F80000B8426C
:1005D000EBD100E025462C68002CE8D1BDE8F08185
:1005E0000029A8BF7047401C490008BF20F0010047
:1005F000704710B4B0FA80FC00FA0CF050EA010425
:1006000004BF10BC704749B1CCF1200421FA04F4B6
:1006100011FA0CF118BF012121430843A3EB0C018F
:10062000CB1D4FEA00614FEA102042BF002010BCF2
:10063000704700EBC35010440029A4BF10BC7047A2
:10064000401C490008BF20F0010010BC704710B5E5
:10065000141E73F1000408DA401C41F100019218E5
:100660005B411A4301D120F0010010BD2DE9F04D8E
:1006700092469B4611B1B1FA81F202E0B0FA80F2E3
:1006800020329046FFF766FF04460F4640EA0A0014
:1006900041EA0B0153465A46084313D0114653EA28
:1006A000010019D0C8F140025046FFF762FF05462D
:1006B0000E46504659464246FFF74CFF084305D0C8
:1006C000012004E020463946BDE8F08D00200543B6
:1006D00046EAE0762C4337430A986305E40AA0EB28
:1006E00008000022FD0A44EA47540A3002D50020DF
:1006F0000146E9E7010510196941DDE908450019DE
:100700006941BDE8F04DA2E72DE9FE4F804681EA40
:100710000300C00F0C46009021F0004123F000457B
:10072000B8EB0200A94105D24046214690461C463E
:100730000B46024623F00040104347D0270DC7F375
:100740000A00C3F30A510290401A019040286BDA64
:10075000C3F3130040F4801B0098924620B100239D
:10076000D2EB030A63EB0B0B01985946C0F1400230
:100770005046FFF7EFFE06460D4650465946019A91
:1007800000F01EF910EB08006141002487EA1152C5
:1007900084EAE7731A4340D0009A62B3019A012AAF
:1007A0004FEA075215DC001B61EB02014FF00042DB
:1007B00002EA0752CDE90042001C41F580113246A1
:1007C0002B46FFF753FF03B0BDE8F08F40462146AC
:1007D000F9E7001B61EB0201001C41F580130018D2
:1007E0005B412018A2F5001747EB030140EAD570E2
:1007F000B6196D4111E06D084FEA360645EAC0753D
:100800004FEA0752001B61EB0201001C41F5801109
:1008100049084FEA30000019514132462B4603B0D7
:10082000BDE8F04FFFF713BF0098012240000023FE
:10083000D0EB020263EBE073009821464FEAE074CC
:10084000B8EB000061EB0401E9E783F000435BE7EC
:1008500081F0004158E72DE9FE4F81EA030404F0DE
:10086000004421F0004100944FF0000B23F00043BE
:1008700050EA01045ED052EA03045BD0C3F30A5489
:10088000C1F30A552C44A4F2F3340194A0FB0254A2
:10089000C1F3130141F48011C3F3130343F4801334
:1008A00001FB024400FB034E840A970A44EA815488
:1008B00047EA8357A4FB076802958D0A05FB078565
:1008C0004FEA932C04FB0C542705029D4FEA06586F
:1008D00047EA1637B5EB08056EEB070C870E920E4C
:1008E00047EA811742EA8312A7FB0201B6EB0B012C
:1008F00064EB00042B0D43EA0C335E1844EB1C50F0
:10090000DA465146E7FB0201C5F313044FEA0B3305
:1009100043EA14534FEA0432019C43EA0603A4F16C
:100920000C040294009CCDE900B4FFF79FFE03B0D5
:10093000BDE8F08F00200146F9E7C1F30A52C1F388
:10094000130140F2FF3341F480119A4202DA002091
:100950000146704740F233439A42A2F2334202DC2E
:100960005242FFF706BEFFF7F5BD000030B5041E8A
:1009700071F1000404DB4FF00044404264EB0101DC
:10098000141E73F1000405DB1C464FF00043524275
:1009900063EB0403994208BF904230BD064C074DFB
:1009A00006E0E06840F0010394E80700984710343F
:1009B000AC42F6D3FFF70CFCF0BA020810BB0208F9
:1009C000202A06DBCB17203A41FA02F043EAE07313
:1009D00006E041FA02F3D040C2F120029140084300
:1009E00019467047704770B58C1810F8015B15F008
:1009F000070301D110F8013B2A1106D110F8012B91
:100A000003E010F8016B01F8016B5B1EF9D12B07B5
:100A100005D40023521E0DD401F8013BFAE710F86B
:100A2000013BCB1A921C03E013F8015B01F8015B58
:100A3000521EF9D5A142D8D3002070BD10B50124B3
:100A40000348610301F016F800B10024204610BDF0
:100A5000000802400146014803F0E2BA38040020D1
:100A6000044810B503F0EEFA042801D0012010BDAF
:100A7000002010BD3804002010B500F015F8012842
:100A800001D0022010BD074803F0F2FA040006D19D
:100A900004484FF4006103F089F900B101242046B5
:100AA00010BD00003804002008B501208DF80000BA
:100AB000FFF7C4FF10B900208DF800009DF800007A
:100AC00008BD000013460A4610B50024014603483D
:100AD00003F05CFB00B10124204610BD3804002067
:100AE000034801214FF0FF3240680DF089BA000041
:100AF0002800002013460A4610B50024014603488A
:100B000003F0C2FB00B10124204610BD38040020D0
:100B10002DE9F04F95B0584D4FF0000B06465C465E
:100B2000CDF844B0CDF848B0CDF84CB0A868016914
:100B300068788847002830707ED000240DF1100AB4
:100B40000DF1380908AF8BE0A8680DF12C080AEB0D
:100B5000440208EB440143696878984728780128E3
:100B600007D138F8142029F814203AF8141027F87F
:100B70001410810705D538F81410C1F5805129F8F3
:100B80001410410705D53AF81410C1F5805127F823
:100B90001410000707D538F8140027F814003AF8A5
:100BA000141029F81410DFF8D48039F8140058F81C
:100BB0002410884201D9421A00E00A1A2F491FFA6C
:100BC00082FC37F81420143151F824309A4201D9AC
:100BD000D31A00E09B1A9BB26344052B03D948F853
:100BE000240041F8242095F801C0BCF1700F26D0F4
:100BF00058F8242006EB44006B885A43120B4280BD
:100C000051F82410AA885143090B818113A8214669
:100C100012AB009011AA60460CF0C6FF3019119972
:100C20008175129980F82010139979B101290FD09C
:100C3000022910D0032900E01AE010D10DE006EBE4
:100C40004401488037F814008881DFE7012100E083
:100C50000221C17603E00321FBE780F81BB0641C8E
:100C60003078A0423FF670AF304600F009F80446F5
:100C700015B02046BDE8F08F3C010020C897002049
:100C8000F8B5044614480026694600963546407873
:100C90000CF07AFF0098182816D005DC68B11028EF
:100CA0000DD0142806D10CE01C280FD040280FD0FE
:100CB00049280FD001252846F8BDA662FBE7012090
:100CC00000E00220A062F6E70320FBE70420F9E73A
:100CD0000520F7E70620F5E73C01002070B50C4C35
:100CE00000260C4D60807020A180296888476968C3
:100CF00070208847512802D00326304670BDA56079
:100D00007020607008212170E9688847F5E70000CD
:100D10003C0100200C010020FEE70000144A10B541
:100D2000136823F001031360124A12680123AAB961
:100D3000114A12684FF08A44B4EB025F0ED10F4A99
:100D400013601368002BFCD10C4A083A106010683D
:100D5000884201D0002010BD012010BD084A9360D8
:100D60009368002BFCD1106010688842F4D0F1E742
:100D7000002000E0002004E00010005C084C025855
:100D800000300240014800F06BBB00004415002019
:100D9000F0B5059C44EA034503685C6C04F04044EC
:100DA0002C435C640368DA634268B2F5403F02D0CA
:100DB0000068C160F0BD01F47F42856801F47F04E2
:100DC000224301F07F4301F47F0701F47F46CCB258
:100DD000BDB1012D16D001F47F02C1F3C401D20CC4
:100DE000022D11D0032D14D0320B390D15011A0F1D
:100DF00045EA0123210943EA02320A43006882637B
:100E0000F0BD1A432243F9E7B30A5B0143EAC22269
:100E1000F3E7F40ADB0F640144EA822242EAC332B8
:100E2000EBE730B50468256825F480252560046863
:100E300063608368402B036803D099600068C260D8
:100E400030BD9A600068C16030BD704770470022B5
:100E5000AFF300800E4B70B505465C7A0120002C84
:100E600014D15E7A03F108009C555E7A03EB860686
:100E700075605D7A2A54587A421C5A723A232F229E
:100E8000303008704B7020468A70CC7070BD000006
:100E9000C8150020F0B5D1E90125D1E90343D1E916
:100EA00005762A43D1F800C044EA0304D1E90735A6
:100EB00042EA0402496A42EA0702BCF1010F42EA2F
:100EC000060208D004681A432A430A43E30BDB03F3
:100ED0001A4302600BE0066844682B4326F4F84589
:100EE00029430B4303606FF30E042243426000204A
:100EF000F0BD426942EA410141610020704738B5C6
:100F000091E81C00C9686FF01F051A4305EB4414F3
:100F100044EA41210A4300920261002038BD0000EA
:100F20002DE9F043914691E81C006FF00F05521E29
:100F30002E0105EB03131A430B7E06EB04268C8A65
:100F40002F034FEA054C0D8A32434FF07F4808EBE0
:100F50000366CB68B9F1010F07EB05450CEB0454B0
:100F60000CD081683F1107EB03331A432A43224315
:100F7000324301F070410A43826011E08168DFF87A
:100F800028C0C7681B03A3F5805323432A4301EA03
:100F90000C0132430B43836007F070442243C2606C
:100FA0000020BDE8F0830000FF0F0FFFF0B5012621
:100FB000044600201E2301E05B1E05D303F01F073B
:100FC00006FA07F50D42F7D072B1082A0AD0102AA6
:100FD00005D0182A01D1072B06D30120F0BD082B1C
:100FE000FBD201E0102BF8D22368596121688B688D
:100FF00023F0180313438B60F0BD000010B504000C
:1010000010D0607F20B900202077204600F032F811
:1010100021790220607739B1D4E902122046FFF726
:10102000C5FF48B1012010BD216811484861206802
:10103000816821F0180181606079A0B12168206980
:101040000861012220686369816821F06001194309
:1010500081602068A369816821F080011943816063
:101060006277002010BD21684FF0FF30E8E70000F4
:10107000B71DC10408B500680649884208D1064872
:10108000016841F480510160006800F480500090D4
:1010900008BD0000003002403038024070B5040046
:1010A00003D094F8350010B104E0012070BD204653
:1010B00000F03AF8022084F835002068194A0168E7
:1010C00011400160D4E90453E168D4E901022943E5
:1010D0001843A36908431043D4E90815184308438B
:1010E00054F8281B28432CCC10430A681843284383
:1010F0001043086054F8300C343C102805D12268A5
:10110000E17FE06961F31F609061206800220121A6
:10111000C36843F01E03C360E26484F835101046D0
:1011200070BD000007F0E0FF70B586B004461421E2
:101130006846FFF715F937492068884268D1364874
:10114000016841F001010160006800F001000590B4
:101150003148001F016841F010010160016801F091
:1011600010010591016841F008010160016801F07A
:1011700008010591016841F040010160016801F03A
:1011800040010591016841F080010160016801F0B2
:1011900080010591016841F00101016000680024AF
:1011A0000D26694600F001000590602000900225A0
:1011B0001A48CDE90154CDE9034600F06FFB082041
:1011C0000090CDE9015416486946CDE9034600F088
:1011D00065FB28020090CDE9015412486946CDE92B
:1011E000034600F05BFB4FF4BC400090CDE9015496
:1011F0000D486946CDE9034600F050FB50200090B1
:10120000CDE9015409486946CDE9034600F046FBA3
:1012100006B070BD00000550343802400010024096
:10122000000C024000180240001C02400000024076
:101230002DE9F04104460068016821F00501091D0F
:10124000016000F029FC002605464FF47A770FE094
:1012500000F022FC401BB8420AD9E16B032084F85D
:10126000386041F02001E16384F83900BDE8F08185
:1012700020680068C007EBD120680121026822F4D1
:101280000C52026084F83910002084F83860EDE7D1
:10129000F8B504461D46DDE9063094F83860012EA5
:1012A00018D0012784F83870022684F8396026683F
:1012B00072612A4600902046FFF76AFD20680168A7
:1012C00041F40C5101602068016841F001010160A6
:1012D0000020F8BD0220F8BD704700002DE9F04164
:1012E000044600680129016800F1240541F0040169
:1012F000016001D125681C3500F0CEFB00270646B1
:101300004FF47A7810E000BF00F0C6FB801B404528
:101310000AD9E16B032084F8387041F02001E163C1
:1013200084F83900BDE8F08128688006ECD4206894
:101330000121026822F46452026084F8391000200E
:1013400084F83870EEE7000070B590F83820012A74
:1013500023D0244C012680F83860022300EB0112D0
:1013600080F83930158CD36918320A2B43EA0545C9
:1013700015D0092B13D0137B45EA0363056899B197
:10138000E969A1431943E961016813680B61516878
:101390000A291BD0092919D01DE0022070BDD3688D
:1013A00003F07F432B43E9E7696AA143194369626C
:1013B000016813688B6151680A2901D009290AD193
:1013C000D168026821F07F41916204E0D16802682F
:1013D00021F07F411162002180F8396080F83810D7
:1013E000084670BD0F0003FF70B5040011D01B4804
:1013F0000068000217D520680168C90703D020469D
:10140000FFF716FF04E0416A890604D5002106E0D3
:1014100048B1012070BDC069800604D50121204675
:10142000FFF75CFFF4E7216800253F200D6021688D
:10143000886020680561206885612068C561206832
:10144000456220684563204600F0C6F8E56384F8ED
:101450003950002084F8385070BD00003038024008
:101460002DE9F0470446006800274FF004084FF0CC
:10147000010946680568F10714D0E90512D503682B
:1014800023F480730360E06B40F00100E0632068A8
:10149000C0F8089084F8398084F83870616909B11F
:1014A00020468847B00615D5A80413D52068202209
:1014B000036823F40053036020688260E06B40F00F
:1014C0000200E06384F8398084F83870616909B1FA
:1014D00020468847300715D5280513D520680822EF
:1014E000036823F40063036020688260E06B40F0CF
:1014F0000400E06384F8398084F83870616909B1C8
:101500002046884770070CD568050AD52068026810
:1015100022F4806202602068C0F80880204600F053
:101520005AF8B00713D5A80511D520680222036820
:1015300023F40073036020688260E06BE06384F84A
:10154000399084F83870216909B120468847F0063F
:1015500012D5E80410D52068016821F4805101609B
:10156000226810219160E16BE16384F83990204694
:1015700084F83870FFF7B0FEBDE8F08770B504005E
:1015800004D094F83900002510B106E0012070BDA8
:10159000204684F8385000F031F8022084F83900F1
:1015A000D4E900030121026822F440321A430260A8
:1015B0002068A368426B22F007021A434263206846
:1015C000E368026C6FF30D021A430264E56384F86A
:1015D0003910002070BD704700680649884207D165
:1015E0000548016821F4000101605A2001F006B9A4
:1015F0007047000000B002403038024008B5006873
:101600000B49884212D10B48016841F40001016086
:1016100000680022052100F4000000905A2001F02B
:101620000BF9BDE808405A2001F0F9B808BD0000E8
:1016300000B0024030380240F8B50446069894F8ED
:101640003850012D15D0012684F83860022584F821
:10165000395000902046FFF79BFB2068016841F459
:101660000C5101602068016841F001010160002017
:10167000F8BD0220F8BD406D70472DE9F0410446E9
:1016800090F8340000250128A66D0ED094F835C0DE
:101690000127002084F83470BCF1010F07D0022527
:1016A00084F834002846BDE8F0810220FBE70227D9
:1016B00084F8357060652046FFF7B3FB94F85C1042
:1016C0003F208840B0602068016841F01601016049
:1016D0002068416941F080014161206C20B120689F
:1016E000016841F0080101602068016841F00101D2
:1016F0000160D7E770B5044600F0CEF90546601CDE
:1017000002D004480078044400F0C6F9401BA0420F
:10171000FAD370BD5C0000202DE9F04FDFF84CE1FA
:1017200000224FF001094FF00F0A00BF09FA02F43E
:1017300001EA0403A3427CD122F003067644970712
:10174000D6F808C83F0FDFF828810AFA07FB4045A2
:101750000BEA0C0502D14FF0000C40E0DFF814C199
:10176000604502D14FF0010C39E0DFF80CC1604553
:1017700002D14FF0020C32E0DFF800C1604502D127
:101780004FF0030C2BE0DFF8F8C0604502D14FF0BA
:10179000040C24E0DFF8ECC0604502D14FF0050CEA
:1017A0001DE0DFF8E4C0604502D14FF0060C16E002
:1017B000DFF8D8C0604502D14FF0070C0FE0DFF82A
:1017C000D0C0604502D14FF0080C08E0DFF8C4C07B
:1017D000604502D14FF0090C01E04FF00A0C0CFA01
:1017E00007FCAC451DD1D6F80888DFF8ACC028EA64
:1017F0000B08C6F808880CF10405DCF800802E1DE3
:10180000371D28EA0308CCF80080D5F800C02CEA80
:10181000030CC5F800C035689D4335603D689D43A5
:101820003D6003230768D5084FEA42084FEA427C2F
:1018300000E015E04FEADC6C03FA08F39F43076011
:101840000AFA0CF600EB85052F6AB7432F6285680C
:101850009D4385604568A5434560C4689C43C4605A
:10186000521C102AFFF462AFBDE8F08F0030014037
:10187000000002400004024000080240000C024048
:10188000001002400014024000180240001C0240F8
:101890000020024000240240003C01402DE9F84FA6
:1018A000DFF89CE100224FF001084FF0030B4FF0EE
:1018B0000F0A00BF0B6808FA02F42340A34271D15B
:1018C0004D68022D01D0122D0FD1D5080E69570792
:1018D00000EB8505A9462D6AFF0E0AFA07FCBE40FB
:1018E00025EA0C052E43C9F820600F7955000668DB
:1018F0000BFA05FC07F0030726EA0C06AF40374356
:1019000007604E68012E05D0022E03D0112E01D0A3
:10191000122E0ED18668CF6826EA0C06AF403743F8
:10192000876046680F79A643C7F30017974037438F
:101930004760C4688E6824EA0C04AE402643C66043
:101940004C68E40075D53F4C256845F4804525601A
:10195000246822F00306950704F4804400943A4C6E
:101960002D0F2644D6F80848DFF8E0C00AFA05F73C
:10197000604524EA070401D100272EE0344FB84225
:1019800001D1012729E0334FB84201D1022724E0D9
:10199000314FB84201D103271FE0304FB84202D186
:1019A00004271AE045E02E4FB84201D1052714E084
:1019B0002C4FB84201D106270FE02B4FB84201D17E
:1019C00007270AE0294FB84201D1082705E0284F30
:1019D000B84201D1092700E00A27AF4027437546E6
:1019E000C6F808784E68DEF80040F60324EA0304DF
:1019F00000D51C43124E2C60361D4D683468AD0373
:101A000024EA030400D51C430D4F346008374D68A9
:101A10003C68ED0224EA030400D51C43084D3C60F9
:101A20000C354E682C68B60224EA030400D51C432A
:101A30002C60521C102AFFF43DAFBDE8F88F000067
:101A4000003C0140443802400030014000000240A8
:101A50000004024000080240000C02400010024056
:101A60000014024000180240001C02400020024006
:101A7000002402400069084000D0012070474269FC
:101A800031EA020200D10904816170470AB1816123
:101A900070470904FBE700000148806870470000B8
:101AA0005C00002030B590F84120202A24D190F825
:101AB0004020012A20D0012380F84030242280F8E1
:101AC0004120202300240268156825F001051560D7
:101AD0000268156825F480551560026815680D4385
:101AE000156001680A6842F001020A6080F841301E
:101AF00080F84040002030BD022030BD30B590F865
:101B00004120202A22D190F84020012A1ED0012312
:101B100080F84030242280F84120202400250268EB
:101B2000136823F0010313600268136823F47063E1
:101B300043EA0121116001680A6842F001020A606B
:101B400080F8414080F84050002030BD022030BD78
:101B500010B5040014D0242084F8410020680168E6
:101B600021F001010160204600F0EEFA00206064DF
:101B700084F84100206384F8420084F8400010BDDE
:101B8000012010BD90F841007047000070B50400BE
:101B900004D094F84100002510B106E0012070BD8A
:101BA000204684F8405000F0F3FA242084F84100E5
:101BB0002068016821F001010160D4E9001020F0E3
:101BC000706008612068816821F400418160E068EC
:101BD00021680128A06806D040F404408860E068CD
:101BE000022803D006E040F40040F7E721684FF4F4
:101BF0000060486020212068114A43681343436015
:101C00002068C26822F40042C26054F8106B0DCC08
:101C1000104340EA0320F06054F81C3CD4E9000271
:101C20001043186054F81C0D026842F00102026073
:101C3000656484F84110256384F84250002070BD2B
:101C4000008000022DE9F84F044690F841001F463D
:101C50009046DDF828A08B4620287ED194F84000DD
:101C600001287AD0012084F84000FFF715FF0122F7
:101C7000064619230090D103204603F033F9E0BB58
:101C80000025222184F84110102084F84200656468
:101C90006785618DFF2732484FF00079C4F82480B2
:101CA000FF294FF08078656303D927853A46009075
:101CB00039E0618D218500903AE05946204603F0D5
:101CC000FBF813E003F03CF9B8B92068616A406A98
:101CD0000870606A401C6062208D401E81B22185C0
:101CE000608D401E6085608D00B169B1608D3246A7
:101CF000514600282046E5D100E002E003F064F9F7
:101D0000D0B10120BDE8F88F002253468021204643
:101D1000009603F0E7F80028F3D1608DFF2804D97E
:101D200027853A4600954346C7E7608D2085009594
:101D30004B4694F82820C0E720682021094AC16159
:101D4000206843681340436084F8411084F842508F
:101D5000002084F84050D5E7FFE70220D2E70000DA
:101D60000024008000E800FE2DE9F84F044690F8BA
:101D700041001F469046DDF828A08B4620287ED1E2
:101D800094F8400001287AD0012084F84000FFF741
:101D900083FE0122064619230090D103204603F05A
:101DA000A1F8E0BB0025212184F84110102084F81F
:101DB000420065646785618DFF2732484FF00079E6
:101DC000C4F82480FF294FF08078656303D9278504
:101DD0003A46009039E0618D218500903AE05946FD
:101DE000204603F069F813E003F015F9B8B9606A0A
:101DF000216800788862606A401C6062608D401EC5
:101E00006085208D401E80B22085618D01B168B152
:101E1000608D3246514600282046E5D100E002E0C0
:101E200003F0D2F8D0B10120BDE8F88F002253466C
:101E300080212046009603F055F80028F3D1608DEC
:101E4000FF2804D927853A4600954346C7E7608DA9
:101E5000208500954B4694F82820C0E72068202173
:101E6000094AC161206843681340436084F8411007
:101E700084F84250002084F84050D5E7FFE7022064
:101E8000D2E700000020008000E800FE2DE9FF4FAF
:101E900083B0044690F841009A469346DDE91087E6
:101EA000DDF84890202874D15FEA080014D09FB173
:101EB00094F8400001286CD0012084F84000FFF71E
:101EC000EBFD0122064619230090D103204603F0C2
:101ED00009F8002871D103E04FF4007060646CE0F1
:101EE0000025C4F82480222184F84110402084F881
:101EF000420065646785534665635A4604992046E7
:101F0000CDE9009602F074FF10B184F8405054E01F
:101F1000618DFF2734484FF08078FF294FF0007A19
:101F200004D927853A464346009005E0618D534623
:101F30002185009094F828202046049902F0BCFFE7
:101F400000224B4604212046009602F0CBFFA0BBA6
:101F50002068616A406A0870606A401C6062208D77
:101F6000401E81B22185608D401E6085608DD8B194
:101F7000D1B900224B4680212046009602F0B2FFE4
:101F8000D8B9608DFF2805D927853A464346009584
:101F900006E026E0608D53462085009594F82820C1
:101FA0002046049902F088FF608D0028C8D132468F
:101FB0004946204603F008F818B1012007B0BDE8F3
:101FC000F08F21682020094AC86121684B681340BE
:101FD0004B6084F8410084F84250002084F840505F
:101FE000ECE70220EAE700000024008000E800FEA1
:101FF0002DE9FF4F83B0044690F841009A4693467E
:10200000DDE91087DDF84890202871D15FEA0800EB
:1020100014D09FB194F84000012869D0012084F8C1
:102020004000FFF739FD0122064619230090D10335
:10203000204602F057FF00286ED103E04FF40070F5
:10204000606469E00025C4F82480212184F84110EF
:10205000402084F8420065646785534665635A46AC
:1020600004992046CDE9009602F0F4FE10B184F800
:10207000405051E0608DFF274FF08078FF284FF0EF
:10208000007A04D927853A464346009505E0608DDD
:1020900053462085009594F828202046049902F0A4
:1020A0000BFF32464946204602F0B5FFA0BB606AEE
:1020B000216800788862606A401C6062608D401E02
:1020C0006085208D401E80B22085618DD9B1D0B948
:1020D00000224B4680212046009602F003FFD8B92B
:1020E000608DFF2805D927853A464346009506E0CE
:1020F00026E0608D53462085009594F828202046E0
:10210000049902F0D9FE608D0028CAD132464946B2
:10211000204602F059FF18B1012007B0BDE8F08F4A
:1021200020682021074AC16120684368134043604A
:1021300084F8411084F84250002084F84050ECE7C5
:102140000220EAE700E800FE0C4A01680C489142D0
:1021500007D1016821F4001101600A484FF4407171
:1021600009E0094A914208D1016821F400010160A7
:1021700006484FF4C071FFF7CFBA704700540040D3
:102180004038024000040240005C0040001C024055
:1021900070B586B0044614216846FEF7E1F825685C
:1021A0001220224C0122224E042320491034B54231
:1021B0001BD10D6845F002050D60096800250493E8
:1021C00001F0020105914FF44071CDE9001019486A
:1021D0006946CDE90225FFF761FB206840F4001055
:1021E0002060206800F400101DE0134EB5421BD1A2
:1021F0000D6845F080050D6009680325049301F022
:10220000800105914FF4C071CDE900100B4869467B
:10221000CDE90225FFF742FB206840F40000206072
:10222000206800F40000059006B070BD3038024010
:102230000054004000040240005C0040001C0240CA
:102240000248816802781144816070475C00002078
:10225000032010B500F010FB002000F005F800F09E
:10226000B1FA002010BD000010B500220146362052
:1022700088B000F0E1FA362000F0D1FA1348016886
:1022800041F010010160006805A900F010000690FF
:10229000684600F0AFFF00F0D3FF0D494000002278
:1022A0000C4CB0FBF1F10C4840F2E7330460C0E99C
:1022B0000332491EC0E9011202F052F910B10120A7
:1022C00008B010BD044802F0BBF9F9E740380240FD
:1022D00040420F00001000406C0700202DE9F04143
:1022E000044690F8A00016460F4601281DD001258F
:1022F00084F8A050022084F8A10006EB860000EBD1
:10230000C600342204EB80003830FEF710F8324665
:102310003946204602F0A2FF216800204D6284F871
:10232000A15084F8A000BDE8F0810220FBE710B5C1
:10233000044600F015F90020C4F8A40084F8A100B8
:1023400084F8A00010BD70472DE9F04104460068F4
:1023500000274FF00408856B466B690715D5710798
:1023600013D5426B22F0040242632068C0F83C801F
:10237000D4F8A40040F00100C4F8A40084F8A180BF
:10238000204684F8A070FFF7DEFFA80716D5B00737
:1023900014D520680222436B23F0020343632068B4
:1023A000C263D4F8A40040F00200C4F8A40084F88A
:1023B000A180204684F8A070FFF7C5FF05EA06005B
:1023C0004FF00108C0070ED021684A6B22F00102CD
:1023D0004A632168C1F83C8084F8A180204684F8D3
:1023E000A07000F091F8280710D530070ED52068AE
:1023F0000822436B23F0080343632068C26384F818
:10240000A180204684F8A07000F090F9BDE8F0812A
:102410002DE9F041040004D094F8A100002518B182
:1024200007E00120BDE8F081204684F8A05000F0CC
:10243000CDF83448022184F8A110012202CC8B6926
:1024400023F070438B6194E84A001943E3681E430C
:1024500054F8043D31439E693143996121688B688A
:1024600003408B602168A68AA7698B683B4343EAD7
:1024700006438B602168CB680340CB602168A38B47
:10248000276ACE683E4346EA0346CE6021680B6960
:1024900003400B612368A68CA76A1969394341EA96
:1024A0000641196121684B6903404B612068A38D87
:1024B000266B4169314341EA03414161236894F845
:1024C000351094F83600DE6A000406F07F46DE62BE
:1024D000236840EA012094F83460D96A314301430B
:1024E000D9622068416B41F006014163206881692F
:1024F00041F001018161C4F8A45084F8A1200020BA
:1025000090E7000000F800F0124910B5124A134C91
:102510000B6811888B4212D1518800F0E5F82068D1
:1025200090F85610491C80F8561005F0FDFE206802
:1025300006F0E8FFBDE81040002007F038BF00F0CB
:10254000D3F8002007F035FF206801688969BDE8ED
:1025500010400847406801404E00002090010020D4
:1025600010B500681249884220D11248016821F054
:102570008061016010481021FFF7CEF80F484EF639
:10258000FF71FFF7C9F80E48F721FFF7C5F80D48AE
:102590004FF48051FFF7C0F80B484FF44641FFF766
:1025A000BBF8BDE81040582000F028B910BD00006D
:1025B00000680140443802400010024000240240FC
:1025C00000280240001802400020024070B586B08A
:1025D000044614216846FDF7C3FE3C492068884242
:1025E00072D13B48016841F080610160006800F0F1
:1025F0008060059036481438016841F01001016090
:10260000016801F010010591016841F40071016059
:10261000016801F400710591016841F48061016075
:10262000016801F480610591016841F04001016099
:10263000016801F040010591016841F48071016079
:10264000006800240E26694600F480700590102072
:10265000009002251F48CDE90154CDE90346FFF75C
:102660001DF94EF6FF700090CDE901541A486946F5
:10267000CDE90346FFF712F9F7200090CDE90154A8
:1026800016486946CDE90346FFF708F90921E80233
:102690000090CDE90154CDE9034111486946FFF7A7
:1026A000FDF84FF446400090CDE901540D486946CD
:1026B000CDE90346FFF7F2F800220521582000F08B
:1026C000BBF8582000F0ABF806B070BD00680140C0
:1026D000443802400010024000240240002802401A
:1026E000001802400020024070B590F8A020012A96
:1026F00018D00D4D012380F8A030022280F8A120CF
:10270000002450F8A02B566B26F001065663296072
:1027100050F8A01C4A6B42F001024A6343700470F7
:10272000204670BD022070BD406801407047000027
:10273000F0B590F8A030012B37D0012680F8A060CA
:1027400002EB8204022380F8A13004EBC20400EB08
:1027500084039B6C5BB3012B2BD0042B2BD0022B5F
:1027600029D0032B27D0072B25D0012305684FF054
:10277000B00C124F0CEBC212114C5943AB583B40FA
:10278000AB502368002743F00103236003689D5882
:1027900045EA01459D50216841F00101216080F822
:1027A000A16080F8A0703846F0BD0220F0BD04237F
:1027B000DCE70323DAE70223D8E70000FFFF00E0AD
:1027C000246801400C4882B0016841F080510160EA
:1027D000006800F0805000900748001D016841F437
:1027E00080410160006800220F2100F480400090C9
:1027F000901E02B000F020B84038024000280DDBE7
:10280000410900F01F028900012001F1E021904000
:10281000C1F88001BFF34F8FBFF36F8F704700285F
:1028200009DB410900F01F028900012001F1E021CC
:102830009040C1F8000170470E4BF0B41B680D4684
:10284000C3F30223C3F10706042E00D90426191D81
:10285000072901D2002300E0DB1E012404FA06F15F
:102860009C40491E2940641E994014402143F0BCFD
:102870000AF008BC0CED00E0064900F0070210B5B4
:102880004FF6FF040868044B204040EA022018433A
:10289000086010BD0CED00E00000FA051848F8B51E
:1028A000016841F0805101600068164C00F08050D2
:1028B0000090206840F480302060FFF7EDF84FF47E
:1028C0007A76054605E000BFFFF7E6F8401BB04208
:1028D0000FD86068C003F7D5206840F4003020604E
:1028E000FFF7DAF8054606E0FFF7D6F8401BB042DE
:1028F00001D90320F8BD60688003F5D50020F8BD3C
:1029000040380240007000400248016841F4807184
:102910000160704700700040F8B50446FFF7BCF84E
:1029200007465CB194F84000012809D0012684F8DC
:102930004060002594F8410020B10BE00120F8BD73
:102940000220F8BD84F84050204600F045F841F2DE
:102950008830A06420686FF0FF03A168026803EB71
:10296000012322F4F85119430160A06C00222021B8
:102970003B460090204602F069FD30BB2268D4E956
:10298000077C94F804E0E16813683943104F4CEA7F
:102990000E6EDFF840C03B4041EA0E011943116062
:1029A0002168D4E90527B4F810E04B683A4303EAFC
:1029B0000C0343EA0E431A434A6021680A6842F056
:1029C00001020A60656484F8416084F84050F8BDF3
:1029D0002FFFFF00FEF8E0FF2DE9F04387B004462B
:1029E00014216846FDF7BCFC2B49206888424FD172
:1029F0002A48016841F002010160006800F002000D
:102A0000059026480838016841F01001016001680E
:102A100001F010010591016841F0020101600168B7
:102A200001F002010591016841F0080101600068B0
:102A3000092701AA4FF0040800F00800CDF8008033
:102A4000022469460025CDE904700326144882E873
:102A50007000FEF723FF0A21DFF848904020CDE9FF
:102A600003618DE8310069464846FEF717FF01AA69
:102A7000CDF800806946484682E8F000FEF70EFF78
:102A80004FF4605069468DE8F1000748FEF706FFF5
:102A900007B0BDE8F0830000001000A03838024005
:102AA0000010024000040240000C0240F0B5444B0C
:102AB000B0F5002F404D4FF4801E404EA3F10404AA
:102AC000404F03F10402404984464FF000000DD00E
:102AD000F44516D1D2F800C01CF4400C3CD0BCF533
:102AE000800F4ED0BCF5000F0BD109E0D2F800C02A
:102AF0001CF4401C06D0F44519D0BCF5001F00D1D1
:102B00003846F0BD08684002086800F03F0002D473
:102B1000B5FBF0F001E0B6FBF0F019681B68146833
:102B2000C1F30362C3F38813C4F304213DE00868D2
:102B30004002086800F03F0002D4B5FBF0F001E06D
:102B4000B6FBF0F0216823681468C1F3036204F057
:102B50001F01C3F3881328E008684002086800F0EA
:102B60003F0002D4B5FBF0F001E0B6FBF0F01C68CA
:102B70001B681168C4F30362C3F38813C1F3042113
:102B800013E008684002086800F03F0002D4B5FB7B
:102B9000F0F001E0B6FBF0F0256823681168C5F39A
:102BA000036201F01F01C3F388134343491CB3FBC5
:102BB000F2F0B0FBF1F0F0BD0024F40040787D01AC
:102BC000883802400080BB00043802402DE9F84FED
:102BD00004460078DFF824944FF000063746C0071B
:102BE0000ED0D9F8001021F40001C9F80010D9F86E
:102BF0000010626B1143C9F80010606B00B9012628
:102C0000FE4D2068843500030ED5E16B286820F462
:102C1000401008432860E06BB0F5801F01D010B170
:102C200002E0012600E0012720684FF4800BC0027B
:102C30000CD5216C286820F4400008432860206CE3
:102C4000584501D1012601E000B901272068C101E2
:102C500000D50126800666D5E8483830016841F085
:102C6000805101600068DFF898A300F08050009068
:102C7000DAF8001041F48071CAF80010FEF70CFF7A
:102C8000804605E0FEF708FFA0EB080064287DD829
:102C9000DAF80000C005F5D5DFF8608308F16808B0
:102CA000D8F8000010F440702AD0218E01F4407151
:102CB000814225D0D8F80010D8F8002021F44071C6
:102CC00042F48032C8F80020D8F8002022F4803284
:102CD000C8F80020C8F80010D8F80000C0070FD0CE
:102CE000FEF7DAFE824607E0FEF7D6FEA0EB0A0109
:102CF00041F288308142CAD8D8F800008007F3D565
:102D0000206BC0F3012103297ED0D9F8001021F4F3
:102D1000F811C9F80010228ED8F80010C2F30B0287
:102D20001143C8F800102078C00607D5286820F0A5
:102D3000807028602868A16B084328602188AF480C
:102D40008830490405D5626E016821F44031114391
:102D500001602188090405D5A26E016821F4402193
:102D6000114301602168C90305D5E26E016821F4B1
:102D70004011114301602168890305D5226F016864
:102D800021F4400111430160217800E018E1490677
:102D900005D5626C016821F00301114301602178BF
:102DA000090605D5A26C016821F00C0111430160F0
:102DB0002188C90505D5E26C016821F03001114375
:102DC00001602188890505D5226D016821F0C001C7
:102DD000114301602188490505D5626D016821F420
:102DE0004071114301602188090505D5A26D016874
:102DF00021F44061114301602188C90407D5E26DC7
:102E0000016821F4405100E041E011430160218854
:102E1000890405D5226E016821F440411143016007
:102E20002168490205D5A26F016821F08061114334
:102E3000016021684FF0006A890209D5E26F0168DC
:102E400021F0006111430160E16F514500D101277C
:102E500021680A0700D50127490305D5626F01687B
:102E600021F04071114301602168090206D5D4F8B0
:102E70008020016821F0805111430160DFF88491C6
:102E8000012E0ED02068B0F1007F0AD08FE05E4A9C
:102E9000D9F80030104023F4F8120243C9F800209A
:102EA00039E7D9F800004E4620F08060C9F80000EC
:102EB000FEF7F2FD804605E0FEF7EEFDA0EB080010
:102EC00064287DD830680001F6D421784B487C30E6
:102ED000C90712D0616B81B9237A62680168D0F8A2
:102EE00000C09201C1F3014142EA0142CCF3036107
:102EF00042EA016141EA0371016021680A0303D5D6
:102F0000E26BB2F5801F04D0C9021AD5216C594575
:102F100017D16368016894F80CC002689B01C1F383
:102F2000014143EA0141C2F3027241EA0C6141EA04
:102F3000027101602968626A21F01F01521E11436B
:102F400029602168C90110D5238A62680168D0F818
:102F500000C09201C1F3036142EA034242EA016206
:102F6000CCF3027142EA01710160216889010CD53C
:102F70006168228A237B94F808C0890141EA0241F2
:102F800041EA036141EA0C7101603168B04641F0E9
:102F900080613160FEF780FD064604E0FEF77CFDAF
:102FA000801B64280CD8D8F800000001F6D56FB358
:102FB000D9F800004E4620F08050C9F8000000E02B
:102FC00079E0FEF769FD074605E000BFFEF764FD06
:102FD000C01B64286FD83068C0438000F6D507480E
:102FE000216880300A0301D5E26B1AB1C90225D5E8
:102FF000216C19BB63690168277E08E0083802402C
:103000000070004000380240FFFCFF0F5AE00268E9
:10301000C1F301419B0143EA0143C2F3027143EA58
:10302000076242EA0171016029686FF0FF03A26A3A
:1030300021F4F85103EB022211432960216889022F
:1030400012D5E16F51450FD1238C62690168076881
:103050009201C1F3036142EA034242EA0162C7F30B
:10306000027142EA017101602178090716D5616990
:103070000268D0F800C08B01277FC2F30362CCF353
:10308000014143EA014141EA026141EA07710160FD
:103090002868E16A20F4403008432860306840F036
:1030A00080503060FEF7F8FC044607E0FEF7F4FCC1
:1030B000001B642802D90320BDE8F88F3068C043A4
:1030C0008000F3D40020F7E72DE9F04705000F4614
:1030D00063D0444E306800F00F00B84209D2306827
:1030E00020F00F0038433060306800F00F00B84225
:1030F00053D128683C4C810712D5400703D520687E
:1031000040F4E05020602878000703D5206840F4A0
:1031100060402060A968206820F0F000084320602B
:103120002878C0072AD0304968680839012810D0AB
:103130000968022810D0890700292EDA216821F0B9
:10314000030101432160FEF7A7FC804641F2883964
:103150000DE009688903EFE78901EDE7FEF79CFCC4
:10316000A0EB0801494502D90320BDE8F087686853
:10317000216801F00C01B1EB800FEFD1306800F055
:103180000F00B8420BD9306820F00F003843306090
:10319000306800F00F00B84201D00120E5E7287840
:1031A000400705D5E968206820F4E0500843206016
:1031B0002878000706D52869216821F4604141EA92
:1031C000C000206000F05CF82168084AC1F30311D8
:1031D000515CC840064908600020FFF745F8002010
:1031E000C3E70000003C02400838024084010108A7
:1031F000680000200D4A0F2330B503604FF4E054FF
:103200000B4B156805F003054560156805F0F005E2
:103210008560156805F4E055C560126804EAD202BD
:103220000261186800F00F00086030BD08380240E5
:10323000003C024001480068704700006800002020
:103240000449054809680068044AC1F38221515CB9
:10325000C840704708380240680000209401010807
:103260000449054809680068044AC1F34231515CC9
:10327000C8407047083802406800002094010108E7
:10328000154910B51548096811F00C0213D01449FE
:10329000042A0FD0082A0ED10F4C241F226823685D
:1032A00002F03F025B0207D52068C0F38810A0FB44
:1032B000010106E0084610BD2168C1F38811A1FB99
:1032C00000010023FDF702F82168C1F30141491C08
:1032D0004900B0FBF1F010BD083802400024F400B2
:1032E00040787D012DE9F84F05004FF000076ED0C2
:1032F0002878DFF81C93A9F1040AC007AAF1040496
:103300004CD0D9F800104846C1F38101012908D0FA
:103310000068C0F3810002280AD1DAF800004002F8
:1033200006D52068800339D568680028DFD035E0ED
:103330006868B0F5803F0BD010B1B0F5A02F11D068
:10334000206820F480302060206820F4802002E093
:10335000206840F480302060686890B1FEF79CFBE4
:1033600006460AE0206840F480202060F0E700BFB5
:10337000FEF792FB801B642872D820688003F7D583
:103380000CE0FEF789FB064605E000BFFEF784FB74
:10339000801B6428F0D820688003F7D42878800741
:1033A00042D5D9F80010484611F00C0F08D000683B
:1033B000C0F3810002280BD1DAF80000400207D4E4
:1033C0002068800718D5E868012800D114E01CE1C6
:1033D000E8680028206817D040F001002060FEF760
:1033E0005BFB064605E000BFFEF756FB801B02288C
:1033F000C2D820688007F7D52869216821F0F80134
:1034000041EAC00020600FE020F001002060FEF7DC
:1034100043FB064605E000BFFEF73EFB801B02288B
:103420001ED820688007F7D42878000729D5784867
:1034300069696C3000298046016812D041F00101B1
:103440000160FEF729FB064605E000BFFEF724FBFE
:10345000801B022804D8D8F800008007F6D510E0B9
:1034600089E021F001010160FEF716FB064604E049
:10347000FEF712FB801B02287DD8D8F800008007D9
:10348000F6D4287840076BD5DFF8848108F1380836
:10349000D8F80000C0000BD4D8F8001041F08051DB
:1034A000C8F80010D8F80000012700F08050009004
:1034B00058480168C90512D40168834641F48071F7
:1034C0000160FEF7E9FA064605E000BFFEF7E4FA00
:1034D000801B64284FD8DBF80000C005F6D54C4EA1
:1034E000A868683601280AD008B1052811D03068CC
:1034F00020F001003060306820F0040002E0306805
:1035000040F001003060A868A0B1FEF7C5FA83461C
:103510000CE0306840F004003060F0E7FEF7BCFAE1
:10352000A0EB0B0141F28830814266D830688007F9
:10353000F4D50EE0FEF7B0FA834607E0FEF7ACFAEA
:10354000A0EB0B0141F28830814256D830688007E9
:10355000F4D42FB1D8F8001021F08051C8F8001031
:10356000A869C8B3D9F80010C1F3810102294CD071
:103570000228206800E040E020F08070206003D046
:10358000FEF78AFA05463BE0FEF786FA064604E0B7
:10359000FEF782FA801B02282FD820688001F7D41A
:1035A000D5E90962D5E907011B4B570895F82C208E
:1035B000084303EB074343EA8611084340EA0260ED
:1035C00040F00050CAF80000206840F08070206091
:1035D000FEF762FA054606E015E000BFFEF75CFA6A
:1035E000401B022809D820688001F7D50BE000BFF6
:1035F000FEF752FA401B022802D90320BDE8F88FDB
:1036000020688001F4D40020F8E70120F6E70000EC
:1036100008380240007000400000FFFFF0B5037F53
:10362000012B26D001240477022343770568CA269C
:10363000AB686E625325066875620568EE6C26F00D
:103640000606EE640568EE6C40F608071643EE6465
:10365000BB430B4301688B6001688A6842F40062D7
:103660008A600268FF215162002144770177084691
:10367000F0BD0220F0BD00002DE9F041040002D0B1
:10368000607F18B107E00120BDE8F08100202077BD
:10369000204600F041F802206077CA2122685320BA
:1036A000516221684862204601F000FF002820682E
:1036B0004FF0FF0103D0042241626277E3E7154D2A
:1036C000012382682A408260D4E90026D4E90457A5
:1036D00090683D433043284390602268E068106161
:1036E00020682289056945EA024202612068C268B1
:1036F00022F08002C2602068C26C22F00802C2641C
:103700002068A569C26C2A43C2642068416263775D
:103710000020B9E7BFFF8FFF00680449884204D149
:103720000348016841F400410160704700280040EF
:10373000703802402DE9F05F0446007F0B460128F7
:1037400043D002210120207761774FF000062068E6
:1037500080684FEA4060BAB3002800DB1E735878D7
:103760001A781F7B9978050293F824C041EA024138
:10377000186A45EA07459A69294341EA0C650543F9
:1037800015432268D3F81CC0CA215F6853204FF04C
:10379000FF0851624FF47A7A216847EA0C074FF02C
:1037A000030B4862986AB0F5807F206881682DD04D
:1037B00021F4007181602068816821F400518160EA
:1037C000FEF76AF9814655E002E00220BDE8F09F6D
:1037D000002800DB1E73187801F05CFE02045878A4
:1037E00001F058FE42EA0022987801F053FE197B5E
:1037F000024393F8240042EA014201F04BFE196AA9
:1038000042EA006598690D430543BAE721F48071E7
:1038100081602068816821F480518160FEF73CF965
:1038200081460BE0FEF738F9A0EB0900504505D9B9
:103830002268C2F8248084F81DB018E02068C068AF
:10384000C007EFD02068C5612068476420688168A0
:1038500041F480711AE000BFFEF71EF9A0EB0900E9
:10386000504507D92268C2F8248084F81DB003208F
:103870002677ABE72068C0688007EDD52068056231
:10388000206887642068816841F400718160226843
:103890000120C2F8248060770020267796E7000098
:1038A0002DE9F0470446007F0B46012821D04FF058
:1038B000010984F81C9002216177EAB1597898785F
:1038C000DA781B78090240EA024541EA43300543B1
:1038D0002268CA215320516221684862204601F0C3
:1038E000E5FD4FF000064FF0FF074FF0040860BB06
:1038F0001AE00220BDE8F0875878C10603D500F031
:10390000EF000A305870D87801F0C4FD02045878EE
:1039100001F0C0FD42EA0022987801F0BBFD197861
:10392000024342EA4135D3E721680F4805404D6024
:103930002068C16821F08001C1602068806880062D
:103940000AD4204600F088F830B121684F6284F82C
:103950001D8001202677CDE721684F6284F81D90F5
:1039600000202677C6E700003FFFFF002DE9F04763
:103970000446007F0D46012828D04FF0010A84F844
:103980001CA00221617720684FF0000680684FEA92
:103990004060F2B1002800DB2E7369782A78A8789D
:1039A0002B7B090240EA024741EA034007432268B1
:1039B000CA215320516221684862204601F076FDF9
:1039C0004FF0FF084FF00409A0BB16E00220BDE84D
:1039D000F087002800DB2E73287801F05BFD0204DD
:1039E000687801F057FD42EA0022A87801F052FD04
:1039F000297B024342EA0147D9E72168154807407D
:103A00000F602068816821F4802181602068D5E9F9
:103A1000041283681143194381602068C16821F052
:103A20008001C1602068806880060BD4204600F0C9
:103A300013F838B12268C2F8248084F81D90012060
:103A40002677C4E72268C2F8248084F81DA00020ED
:103A50002677BCE77F7F7F0070B504460068C168A9
:103A600021F0A001C160FEF717F84FF47A76054601
:103A700007E000BFFEF710F8401BB04201D9032059
:103A800070BD2068C0688006F4D5002070BD0000BD
:103A90002DE9F0474FF000060400354604D094F8B5
:103AA0007D00B14618B107E00120BDE8F08720464F
:103AB00084F87C9000F0E0F8022084F87D00204635
:103AC00001F012FDE06838B1012802D0022803D1CC
:103AD00001E0102600E02026A16861B1012906D08E
:103AE00002294FF4006005D0032904D10EE04FF401
:103AF000806500E005465C495B4A206820319042C1
:103B000001D0884205D15848001F03E046F0010665
:103B1000F0E756480660E06948B323680020934206
:103B200001D08B4203D14FF40020FEF7BFFF4F4A74
:103B30002168121D914203D04C4A2432914203D194
:103B40004FF48010FEF7B2FFE16900EB80000A221B
:103B500040004902B0FBF1F0B0FBF2F3B0FBF2F130
:103B6000216202FB1300082801D9491C2162606808
:103B70004FF40078E8B3022871D0E06B012801D03F
:103B80004FF000082068DFF8E8C06FF0FF01394E01
:103B90004EF20F0203684FF2200703EA0C030360A2
:103BA000236B60681843D4E90D3C43EA0C031843C7
:103BB000636A40EA08002843D4E904C5184323682F
:103BC00040EA0C002843258CD3F800C040EA055594
:103BD000484645EA0C051D6023685D684FF0010CFE
:103BE00095435D60D4F80080D8F80420A3691A4397
:103BF00000E034E0D4E90A352B431A43C8F8042026
:103C00002268936833409360A36C226D256C1A433D
:103C1000E36C6D1E2B43656C1A43236801EB05258D
:103C20002A439D682A439A6054F8542BD3683B403A
:103C3000D36094E86400A78954F8543D2A4301EB0B
:103C4000062141EA0741DD680A432A43DA60C4F8E5
:103C5000800084F87DC084F87C00002025E7E06BBC
:103C600001288DD08EE7000004580140005C01401F
:103C700010C005FF0080F8FF2DE9F04320490746FA
:103C8000006800261F4C87B01F4D88424FF0020885
:103C90004FF00A0915D1286838B9216841F40001AC
:103CA0002160216801F400010591401C2860F02387
:103CB0000093CDE9018615486946CDE90369FDF712
:103CC000EDFD0F4938682031884216D1286838B98F
:103CD000216841F400012160216801F4000105918F
:103CE000401C28604FF480630093CDE901860848AA
:103CF0006946CDE90369FDF7D1FD07B0BDE8F08362
:103D0000045C0140443802402400002000200240AE
:103D10000018024070B504000D4603D094F82C0042
:103D200010B107E0012070BD002084F82D0020466E
:103D300000F011F8022084F82C002068211DFDF706
:103D4000A9F8D4E900022946FDF7EAF8012084F831
:103D50002C00002070BD03F0C7BA10B5044690F8DF
:103D60002C00022809D0022084F82C002068FDF7DE
:103D7000C0F8012084F82C00002010BD70B5044666
:103D800090F82C000D4602280DD0022084F82C005B
:103D90002068FDF7B4F82868022805D05FF001001C
:103DA00084F82C00002070BD0520F9E7FEB504461C
:103DB0000D46416C032084F83400032920D0B5F56A
:103DC000805F1DD0B5F5006F05D045B1A06B40F008
:103DD0000060A06309E0204602F0A1F802E020465E
:103DE00002F076F8A16B0143A163A06B012658B1E4
:103DF000216840F2FF50886384F834600120FEBDE2
:103E0000A06B40F08050E4E7211DD4E905070EC9FE
:103E1000CDE900500297206801F088FE84F83460F4
:103E20000020FEBD7047F0B5426E120E93090B7074
:103E3000C2F3830402F003024C708A70426E120CCB
:103E4000CA70B0F86420120A0A7190F864204A71AE
:103E50004FF6FF73826E120E03EA0212CA80CB88FD
:103E6000826EC2F3074214092343CB8002F00F0293
:103E70000A72B0F868200025C2F30722D3094B72FA
:103E8000C2F38014C2F34016C2F300178C72CE72D4
:103E90000F734D730123446C4FF400766CB1012C09
:103EA00046D0026840F2FF519163816B41F080512E
:103EB000816380F834300120F0BD9207120D0A6151
:103EC0000C6990F8682044EA82020A610C69C26EAB
:103ED000120E9709C2F3C20C3C430C6102F00702B8
:103EE00081F814C04A75C26EC2F30742940757099D
:103EF0008F75640FC2F38202CA750C760A7EB0F821
:103F00006C40C4F3072442EAD4120A760A69521CB0
:103F100042650F7EBF1CBA4042650F7A03FA07F76D
:103F200087654FEA572C02FB0CF2C0E917261CE00C
:103F300090F868209206920A0A610C69C26E120E0D
:103F400044EA02220A610C69C26EC2F307421443BA
:103F50000C610A69B0F86C40521C4FEA822242653B
:103F6000C4F30724C0E916620666C4F380124FEA60
:103F700084644A764FEA54648C7690F86C208C7E88
:103F80004FEAD21602F07F0244EA06048C76CA7623
:103F900050F8702F4FEA12624FEAD2140C77C2F336
:103FA0004116C2F382074FEA82724E778F774FEA4B
:103FB0001272CA77CC7F0268C2F3074244EA9214B5
:103FC000CC77C2F3401602F0010281F8206081F83C
:103FD000215081F822200288C2F307224FEAD2142E
:103FE00081F82340C2F38015C2F34016C2F30017D4
:103FF000C2F3810C02F0030281F8245081F825609D
:1040000081F8267081F827C081F8282000784FEACF
:10401000500081F8290081F82A304FF00000F0BDEF
:10402000426C0A60826C4A60C26C8A60026DCA602F
:10403000426D0A61826D4A61C26D8A61006EC8611B
:104040000020704770B5B0F8501000250446006895
:10405000090401F0B7FB18B1A16B0143A16304E0AF
:104060002068002101F05CFD0546C5F3432070BDCA
:1040700070B5040004D094F83400002510B105E0B8
:10408000012070BD2046257700F03CF8032084F81D
:104090003400204600F007F80120A563256384F86A
:1040A0003400002070BD3EB504467620002100910A
:1040B0000B460A46CDE90110206801F037FD206863
:1040C000416821F480714160206801F040FD206862
:1040D000416841F4807141600220FDF70BFB2046EE
:1040E00001F0A3FE4FF0010520B9204601F02AFEA1
:1040F000002805D084F83450A16B0143A16301204E
:104100003EBD0000F0B587B0044614216846FCF7B8
:1041100027F91A49206888422DD11948016841F4CD
:1041200000610160006800F40060059014481438D4
:10413000016841F004010160016801F0040105918A
:10414000016841F008010160006802240025694609
:1041500000F00800059003260C274FF4F8508DE876
:10416000F1000848FDF79AFB042069468DE8F1004C
:104170000548FDF793FB07B0F0BD0000002C01409F
:104180004438024000080240000C02402DE9F04390
:1041900087B01F461546044639B194F8340001280B
:1041A00007D0022007B0BDE8F083A06B40F00060AC
:1041B00008E0E26D0020EB19A063934204D9A06BE4
:1041C00040F00070A06355E00322814684F834205B
:1041D0002268D0622268D36B43F49573D363E36B98
:1041E0004FEA4728244ADA63E36B244ADA644FEA49
:1041F0009803E26B10650A462068E66B00F18001C7
:104200003046FDF73AFA2068C16A41F00801C16200
:10421000606C012800D06D02694601260596B01E2B
:10422000CDE9000802A89022022380E80C02206851
:1042300001F046FB2068710201F0AAF940F2FF5834
:1042400080B9012F06D9822020632068294601F019
:104250002BFA05E0812020632068294601F03DFA11
:1042600000289FD02268C2F83880A16B0143A16367
:1042700084F83460012095E7235C0008C55B0008E2
:1042800010B5FCF72DFC10BD2DE9F04F5FEA010BD6
:104290001E4687B01546044607D094F8340001281E
:1042A00007D0022007B0BDE8F08FA06B40F000609F
:1042B00008E0E16D0020AA19A0638A4204D9A06B2E
:1042C00040F00070A0633AE00321804684F8341087
:1042D0002168C8622168CA6B42F01A02CA63226C64
:1042E0002549D163226C2549D164216C0865606C35
:1042F000012800D06D0220684FF4007101F048F9E8
:104300004FF0010740F2FF5988B9012E4FF0900A93
:1043100006D9A02020632068294601F09FFA05E015
:10432000C4F830A02946206801F0B1FA48B12268EB
:10433000C2F83890A16B0143A16384F83470012066
:10434000B0E72068C16A41F00801C16222687502C5
:10435000206C5946AB088032FDF78FF9CDE9048710
:104360004FF0FF326946CDE902A8CDE9002520686B
:1043700001F0A6FA002095E7615C0008C55B000823
:104380002DE9F041040004D094F84500002518B14F
:1043900007E00120BDE8F08184F84450204600F099
:1043A00029F8022084F845002068016821F0030103
:1043B0000160D4E90131A069D4E903261843636997
:1043C00011432268084330431843D4E90717D4E95E
:1043D0000936084311683843054F184339403043C4
:1043E000084310600121A56484F845100020D1E73E
:1043F0000784F8FF10B586B0044614216846FBF721
:10440000AFFF2068B0F1402F1FD11148016841F47F
:1044100080310160006800F4803005900C4810384D
:10442000016841F00801016000680823802100F064
:10443000080005900020009102226946CDE9012084
:10444000CDE903030348FDF729FA06B010BD0000CB
:1044500040380240000C024070477047704700002F
:104460002DE9F04390F83C20012A42D0012280F847
:104470003C2051F80C4BDFF880804FF0000991E8A8
:10448000680051E9022723F44073B1F80CC03B43A4
:10449000CF6923F480631343026823F4006323434A
:1044A00023F4805343EA050323F4005343EA06034D
:1044B00023F4804343EA07030C3923F47023424575
:1044C00043EA0C4302D00D4CA2420CD18D8C23F454
:1044D0007006D1E9073446EA055121F0807119438D
:1044E00021F000732343536480F83C900020BDE822
:1044F000F0830220FBE700000000014000040140BF
:1045000070B590F83C20012A24D0134C012580F886
:104510003C50022280F83D2002685368A24296680F
:1045200002D00E4CA24203D14C6823F47003234303
:104530000C6823F0700389681C435460002326F044
:10454000800602683143916080F83D5080F83C302D
:10455000184670BD022070BD0000014000040140FB
:1045600010B5040003D094F83D0010B107E001201D
:1045700010BD002084F83C00204600F00DF8022019
:1045800084F83D002068211D01F0A6FE012084F87A
:104590003D00002010BD000008B518490268184809
:1045A0008A4207D1016841F001010160006800F012
:1045B00001000AE01249134B091F9A4207D108680B
:1045C00040F002000860086814E0009008BD0E4B3F
:1045D0009A4207D1086840F008000860086800F0B7
:1045E0000800F2E709498A42F0D1016841F002016E
:1045F0000160006800F00200E7E7000000000140F1
:104600004438024000040040000C00400004014017
:104610000A4B022180F83D1001688A681A40062A78
:1046200006D0B2F5803F03D00A6842F001020A606A
:10463000012180F83D1000207047000007000100B4
:104640000168094ACB6843F00103CB6001688868C0
:104650001040062806D0B0F5803F03D0086840F02F
:1046600001000860002070470700010070B5044693
:1046700090F83C00012817D0324B012584F83C50BB
:10468000022084F83D0022689068184020F47F40A2
:1046900090600868502830D00DDC20284DD005DC13
:1046A00098B310283BD148E0022070BD302844D098
:1046B000402834D139E0602828D0702806D0B0F5E1
:1046C000805F2CD0B0F5005F29D10AE04A682068ED
:1046D000D1E9021301F066FE2068816841F077019C
:1046E00009E04A682068D1E9021301F05BFE206806
:1046F000816841F48041816011E0CA68496820689E
:1047000001F098FF2068502107E016E0CA68496868
:10471000206801F0A0FF2068602101F04CFE00201D
:1047200084F83D5084F83C0070BDCA684968206830
:1047300001F080FF20684021EFE722680146104623
:10474000EBE7000088FFFEFF704770B50446006885
:1047500000250169C943890715D4C168C943890780
:1047600011D4EA1E02610121217720688069800747
:10477000204602D0FFF7E8FF04E000F019F92046D8
:1047800000F0DAF9257720680169C943490717D491
:10479000C168C943490713D402216FF004020261C2
:1047A00021772068806910F4407F204602D0FFF70F
:1047B000CBFF04E000F0FCF8204600F0BDF92577BF
:1047C00020680169C943090716D4C168C9430907AC
:1047D00012D404216FF00802026121772068C069B9
:1047E0008007204602D0FFF7AFFF04E000F0E0F8BA
:1047F000204600F0A1F9257720680169C943C90660
:1048000017D4C168C943C90613D408216FF0100238
:10481000026121772068C06910F4407F204602D0F1
:10482000FFF792FF04E000F0C3F8204600F084F99F
:10483000257720680169C943C90708D1C168C94300
:10484000C90704D1891E0161204600F077F920686C
:104850000169C943090609D4C168C943090605D4D9
:104860006FF0800101612046FFF7F7FD20680169C4
:10487000C943C90509D4C168C943090605D46FF401
:10488000807101612046FFF7E7FD20680169C94397
:10489000490609D4C168C943490605D46FF04001EF
:1048A0000161204600F054F920680169C943890676
:1048B0000BD4C168C943890607D46FF02001016198
:1048C0002046BDE87040FFF7C9BD70BD30B587B068
:1048D000044614216846FBF743FD2D4D0022236852
:1048E00002202A490124AB4210D10B6843F0010396
:1048F0000B60096801F001010591C1010091CDE94A
:10490000010224486946CDE9032412E0224DAB425E
:1049100013D10B6843F002030B60096801F0020138
:10492000059110210091CDE90102CDE903201B483A
:104930006946FCF7B3FF07B030BD194DAB420FD14C
:104940000B6843F480730B600968009401F4807174
:10495000CDE901020392CDE9040112486946E8E776
:10496000114CA342E7D10B6843F080030B60096848
:1049700001F0800105914021009109236946CDE9AC
:1049800001020A48CDE90323D3E700003038024092
:10499000000001400000024000040040000402400A
:1049A000000C00400020024000180040001C0240A3
:1049B000704770B5044690F83C000D4601280ED0B3
:1049C000012684F83C60022084F83D000C2A45D082
:1049D00007DC5AB1042A1BD0082A78D12CE0022027
:1049E00070BD102A4ED0142A71D15DE0206801F00C
:1049F000EBFC2068816941F00801816120688169D0
:104A000021F00401816120682A698169114311E064
:104A1000206801F013FD2068816941F40061816123
:104A20002068816921F48061816120682969826937
:104A300042EA012181614AE0206801F03BFD2068E3
:104A4000C16941F00801C1612068C16921F0040118
:104A5000C16120682A69C169114311E0206801F031
:104A600065FD2068C16941F40061C1612068C169C8
:104A700021F48061C16120682969C26942EA01218B
:104A8000C16124E0206801F07DFD2068416D41F0A6
:104A9000080141652068416D21F0040141652068ED
:104AA0002A69416D114311E0206801F097FD2068EB
:104AB000416D41F4006141652068416D21F48061E0
:104AC000416520682969426D42EA01214165002063
:104AD00084F83D6084F83C0070BD10B5040003D03C
:104AE00094F83D0010B107E0012010BD002084F8CB
:104AF0003C00204600F00CF8022084F83D002068BD
:104B0000211D01F0E9FB012084F83D00002010BDCB
:104B100008B500680649884208D10648016841F096
:104B200040010160006800F04000009008BD0000F6
:104B300000180040403802407047000000680349F8
:104B4000884201D1FDF77CBB704700000010004097
:104B5000704710B5040002D0606F10B107E001206B
:104B600010BD002084F87000204600F025F82420B5
:104B700060672068016821F001010160204601F0B2
:104B80002BFE0128ECD0606A10B1204601F0A2FD96
:104B90002068416821F4904141602068816821F0DB
:104BA0002A0181602068016841F00101016020460E
:104BB000BDE8104001F0F2BD70B586B00546142185
:104BC0006846FBF7CDFB2B4800242B4B2A68143892
:104BD000284902259A422BD10A6842F010020A6045
:104BE000096801F010010591016841F002010160BE
:104BF000016801F002010591016841F001010160C5
:104C000000680726694600F00100059080200090AA
:104C1000CDE901541948CDE90346FCF73FFE2802CF
:104C20000090CDE9015416486946CDE903461CE0E1
:104C3000144B9A421BD10A6842F020020A600968AC
:104C400001F020010591016841F004010160006854
:104C500008220321029400F004000590C020CDE951
:104C60000312CDE9000508486946FCF717FE06B0B7
:104C700070BD0000443802400010014000040240B2
:104C80000000024000140140000802402DE9F843F2
:104C90000446406F1F4616460D4620284FD1CDB121
:104CA000C6B194F87000012849D0012284F8702020
:104CB00021214FF00008C4F87C806167FCF7ECFE0E
:104CC0008146A068A4F85060A4F85260B0F5805FF7
:104CD00003D004E00120BDE8F883206910B12E461E
:104CE000002510E000260EE08021204601F09EFE07
:104CF000B8B9C6B116F8010B21688862B4F8520041
:104D0000401EA4F85200B4F852004B464FF0000287
:104D100000970028E8D14FF04001204601F086FEC0
:104D200038B10320D7E735F8020B2168C0F308003B
:104D3000E3E720216167002084F87080CBE7022040
:104D4000C9E7FEE701688A69D243920701D40022CD
:104D50008A6200688169C943C90703D0816941F04B
:104D600001018161704700002DE9F04104460068AF
:104D700090460E468069C043C00635D400252027E2
:104D800020688069C043800616D5701CF8D0FCF7F7
:104D900083FEA0EB0800B04201D8002EF0D1606C79
:104DA00084F8405040F02000606484F8417084F83A
:104DB00042500120BDE8F08121681020C8612068C0
:104DC000C7612046FFF7BEFF2068084942680A40D5
:104DD0004260606C40F00400606484F8417084F8C4
:104DE000425084F84050E4E70020E3E700E800FE8A
:104DF0002DE9F843174604461548DAB2DDE908986C
:104E00001E4600900023204600F056F842464946D0
:104E1000204600F000F9B8B9012EFDB208D0206894
:104E2000390A816242464946204600F0F4F858B9F2
:104E300020688562002240214B462046CDF8008044
:104E400000F050F8002800D00120BDE8F8830000F1
:104E5000002000802DE9F8430446164817461E46F8
:104E6000DAB20090C3022046DDE9089800F024F889
:104E700042464946204600F0CEF8B8B9012EFDB2B0
:104E800008D02068390A816242464946204600F02F
:104E9000C2F858B920688562002280214B4620461E
:104EA000CDF8008000F01EF8002800D00120BDE8F9
:104EB000F88300000020008070B50068C1F309018C
:104EC000074E41EA0241049C4FF480654268194351
:104ED00005EA54553543AA4321430A43426070BD55
:104EE000FF63FF032DE9F0411D4617460E460446B9
:104EF000DDF8188008E0681C06D0FCF7CDFDA0EBBB
:104F00000800A8420BD855B12068806936EA000035
:104F100013D00020B842EED00020BDE8F081626CD2
:104F2000002084F84000202142F02002626484F8CE
:104F3000411084F842000120EFE70120EAE7000079
:104F40002DE9F0410025904620260F46044626E034
:104F5000424639462046FFF707FF80BB206880693C
:104F6000C043800614D420688169C943490701D42D
:104F7000218DC9B91349C661206842680A40426060
:104F8000656484F8416084F8425084F8405016E02B
:104F9000FCF782FDA0EB0800B84208D83FB12068BA
:104FA0008069C0434007D3D40020BDE8F081606C25
:104FB00084F8405040F02000606484F84160012093
:104FC000F3E7000000E800FE70B516460D46044603
:104FD0000DE0324629462046FFF7C6FE08B1012003
:104FE00070BDFCF759FD801BA84207D835B1206879
:104FF0008069C0438006ECD4002070BD626C002044
:1050000084F84000202142F02002626484F84110BC
:1050100084F84200E3E770B516460D4604460FE0FB
:10502000324629462046FFF79FFE08B1012070BD99
:10503000681C05D0FCF730FD801BA84207D835B1AD
:1050400020688069C0438007EAD4002070BD626C8C
:10505000002084F84000202142F02002626484F89D
:10506000411084F84200E1E710B50446FCF770FDFA
:105070002046BDE8104000F001B8000010B504461D
:10508000FCF780FD002818D10C48844201D10C485F
:1050900000E00C4801210C4A206000206260C4E955
:1050A000020120616061E0612062204600F00EF89C
:1050B0002046BDE81040FCF769BD10BD30970020C8
:1050C000005C00400054004032279140F0B5424956
:1050D0000022424B87B0424D4FF48076414C9842BB
:1050E000D1F800C04FF012004FF002034FF0040758
:1050F00037D14CF0800CC1F800C009680DF1080CE4
:1051000001F0800105918021CDE900108CE88C0030
:10511000354F69463846FCF7C1FB6946384600966C
:10512000FCF7BCFB286840F400002860286800F405
:1051300000000590206840F400002060206820F402
:105140000000206000220F214820FDF775FB482059
:10515000FDF765FB00220F214920FDF76DFB49207B
:1051600035E04CF0020CC1F800C00968CDE902231B
:1051700001F00201CDE90471CDE900601B4E6946E2
:105180003046FCF78BFB7015694600903046FCF703
:1051900085FB286840F400102860286800F400109F
:1051A0000590206840F400102060206820F4001072
:1051B000206000220F211F20FDF73EFB1F20FDF77E
:1051C0002EFB00220F212020FDF736FB2020FDF7CB
:1051D00026FB07B0F0BD00003038024030970020B9
:1051E0004038024020380240001C024000040240C7
:1051F000FEB50D4606464FF47A74DDE908018DE8E8
:10520000130029463046FCF741FE040003D029462E
:105210003046FFF729FF2046FEBDFEB50D46064687
:105220004FF47A74DDE908018DE813002946304611
:10523000FCF7DEFE040003D029463046FFF714FFDA
:105240002046FEBD4FF4F07070474FF488707047F1
:105250000148FDF779B800009C1400202DE9FE4FAD
:1052600081460068882493468D888C2204EBCB17F6
:105270008A46C3689421BE46C459C3F30B432B44EA
:1052800004F470441F04019702EBCB1240F80E4067
:1052900001EBCB13DAF800709C214FF0AC0C01EB62
:1052A000CB1440F2077102910CEBCB11D9F800C07E
:1052B00098250020CDF800C0A02605EBCB15DCF822
:1052C0000CC006EBCB16CCF30B4C0CF1010C07EB2E
:1052D0000C08DDF800C0019F48EA07084CF80E8072
:1052E000D9F80070BAF80CC0B846FF68C7F30A07CF
:1052F00067444FEA074E58F8027007F4704C48F8BC
:1053000002C0D9F800C0DAF80870DCF80C80C8F3E5
:105310000A0808F10108B84448EA0E084CF802806F
:10532000D9F80020D75827F00707D750D9F80070D0
:10533000DAF81020FA509AF831209AF818304FEA2B
:10534000022C9AF83220120442EA0362D9F80030A3
:105350001F5918519AF8303043EA0C031343D9F817
:1053600000201351D9F80020535923F0FF03535163
:10537000D9F80020DAF814305351D9F800209359A5
:10538000029CA3439351D9F80030DAE90724224361
:105390009A51D9F8002053585050D9F80020DAF823
:1053A00024005050DAF81000C8B301283AD004287D
:1053B0003AD0022838D0032836D0072834D001202C
:1053C000D9F80030B02505EBCB11B42284245D5808
:1053D00002EBCB1205F0E0255D50DAE9003504EB75
:1053E000CB14EB1ABAF8285043434543D9F80000D0
:1053F000DB1C43EA05434350D9F8000081586FF3A2
:105400000A018150D9F80000DAF82C108150D9F83F
:105410000000015941F001010151BDE8FE8FFFE795
:105420000420CDE70320CBE70220C9E70449054863
:1054300010B5FBF70CFD0249491E087010BD0000B5
:105440003100002068010108FEE770472DE9F041B6
:10545000984616460F460446069D12E0681C10D07A
:105460002DB1FCF719FBA0EB0800A84209D90420D4
:1054700084F84100606C40F0010060640120BDE8E8
:10548000F08120688068384000D00120B042E5D12A
:105490000020F4E7002102E00A38491CC0B20A28C3
:1054A000FAD2090740EA11607047000070B504465F
:1054B0000068C168490614D44FF0FF31C160FCF7A1
:1054C000EBFA4FF47A76054607E000BFFCF7E4FA02
:1054D000401BB04201D9032070BD2068C06840065F
:1054E000F4D5002070BD000030B50E4941F65833A8
:1054F00002680C6800211568B4FBF3F325F48034CE
:1055000014609A00521E07D2D0F88020032142F086
:105510004002C0F8802003E003681B68DB03F1D47D
:10552000084630BD6800002030B585B004463720FD
:1055300040220DF1080CCDE9001000236946150149
:1055400020468CE82C0000F009FB372141F288321C
:10555000204600F0C9F905B030BD000030B50B4A57
:1055600085B004462920114340220DF1080CCDE9F5
:10557000001000236946150120468CE82C0000F03D
:10558000EDFA204600F066FA05B030BD000010804C
:1055900030B585B0044610200DF1080C8501CDE929
:1055A000001040226946002320468CE82C0000F0C1
:1055B000D5FA102141F28832204600F095F905B065
:1055C00030BD30B585B00446062040220DF1080CF0
:1055D000CDE9001000236946150120468CE82C0017
:1055E00000F0BCFA062141F28832204600F07CF936
:1055F00005B030BD30B585B00546002469464FF48E
:105600008060009401940294CDE90340284600F0A4
:10561000A5FA0B4A4FF4FA5041F288311268B2FBF6
:10562000F0F04843401E03D24FF0004005B030BDBB
:10563000696B0906F6D540F2FF512046A963F5E7EC
:105640006800002070B50821044685B04FF4D5707D
:105650004026CA018DE8430000256946CDE9035282
:10566000204600F07BFA0F4A4FF4FA5041F288319D
:105670001268B2FBF0F04843401E02D24FF00045E2
:105680000CE0616B11F0450FF6D0606B400701D55F
:10569000042502E0606B400600D5A66305B02846ED
:1056A00070BD00006800002030B585B004461220AF
:1056B00040220DF1080CCDE90010002369461501C8
:1056C00020468CE82C0000F049FA122141F2883281
:1056D000204600F009F905B030BD30B585B004466C
:1056E000112040220DF1080CCDE90010002369467D
:1056F000150120468CE82C0000F030FA112141F20F
:105700008832204600F0F0F805B030BD30B585B0E5
:10571000044640210DF1040C0720009200230D01E6
:105720008CE82B006946204600F018FA072141F268
:105730008832204600F0D8F805B030BD10B586B0EC
:10574000044600210220C02243020493CDE9001048
:10575000CDE902216946204600F000FA204600F01B
:1057600051F906B010BD30B585B0044609200DF1E1
:10577000080CC022CDE90010002369464FF4806573
:1057800020468CE82C0000F0E9F9204600F03AF9B8
:1057900005B030BD10B586B004460021332040224C
:1057A000CDE90221CDE9001013016946204604939A
:1057B00000F0D4F9332141F28832204600F094F809
:1057C00006B010BD30B585B004460D2040220DF165
:1057D000080CCDE9001000236946150120468CE82D
:1057E0002C0000F0BBF90D2141F28832204600F078
:1057F0007BF805B030BD30B585B00C4600210546BC
:1058000003204022CDE90221CDE9001013016946B1
:105810002846049300F0A2F903212246284600F00E
:1058200039F905B030BD000010B586B0044600213E
:105830000C204022CDE90221CDE900101301694678
:105840002046049300F08AF9034A0C21204600F018
:105850004BF806B010BD000000E1F50530B585B08D
:105860000446192040220DF1080CCDE90010002358
:105870006946150120468CE82C0000F06FF91921CB
:1058800041F28832204600F02FF805B030BD30B527
:1058900085B00446182040220DF1080CCDE9001017
:1058A00000236946150120468CE82C0000F056F9CB
:1058B000182141F28832204600F016F805B030BDBC
:1058C00070B50A6842624A688262C46AD1E90225F8
:1058D000D1E9043624F0F7012A4333431A43114334
:1058E000C162002070BD000010B5444C4FF4FA5363
:1058F0002468B4FBF3F353435B1E02D24FF0004025
:1059000010BD426B12F0450FF6D0426B520703D523
:1059100004218163084610BD426BD20702D00121E9
:10592000816303E00269D2B28A4201D0012010BD36
:1059300040F2FF518163002100F0F2F83049084243
:1059400001D1002010BD002802DA4FF0007010BD18
:10595000410001D5402010BD810001D5802010BD3F
:10596000C10002D54FF4807010BD010102D54FF483
:10597000007010BD410102D54FF4806010BDC1011F
:1059800002D54FF4006010BD010202D54FF48050E3
:1059900010BD410202D54FF4005010BD810202D566
:1059A0004FF4804010BDC10202D54FF4004010BD3D
:1059B000410302D54FF4003010BD810302D54FF4EE
:1059C000802010BDC10302D54FF4002010BD01049A
:1059D00002D54FF4801010BD410402D54FF40010E1
:1059E00010BD810402D54FF4800010BD000702D520
:1059F0004FF4000010BD4FF4803010BD680000204F
:105A000008E0FFFD124B4FF4FA5141F288321B6857
:105A1000B3FBF1F15143491E02D24FF000407047F1
:105A2000426B12F0450FF6D0416B490703D50421B4
:105A3000816308467047416BC90703D00121816328
:105A40000846704740F2FF51816300207047000014
:105A5000680000200E4B4FF4FA5141F288321B6867
:105A6000B3FBF1F15143491E02D24FF000407047A1
:105A7000426B12F0450FF6D0416B490703D5042164
:105A800081630846704740F2FF51816300207047F0
:105A90006800002030B51F4D4FF4FA5341F28834AE
:105AA0002D68B5FBF3F363435B1E02D24FF0004059
:105AB00030BD446B14F0450FF6D0436B5B0703D544
:105AC00004218163084630BD436BDB0702D001210E
:105AD000816303E00369DBB28B4201D0012030BD5A
