:020000040800F2
:1000000040A20020A90200084F4B0008D544000878
:100010004D4B0008A907000891610008000000008E
:10002000000000000000000000000000E5010008E2
:10003000DB080008000000004102000871580008B9
:10004000C3020008C3020008C3020008C30200087C
:10005000C3020008C3020008C3020008C30200086C
:10006000C3020008C3020008C3020008C30200085C
:10007000C3020008C3020008C3020008C30200084C
:10008000C3020008C3020008C3020008C30200083C
:10009000C3020008C3020008C3020008C30200082C
:1000A000C3020008C3020008C3020008C30200081C
:1000B000C3020008C3020008C3020008C30200080C
:1000C000C3020008C3020008C3020008C3020008FC
:1000D000C3020008C3020008C3020008C3020008EC
:1000E000C3020008C3020008C3020008C3020008DC
:1000F000C3020008C3020008C3020008C3020008CC
:10010000C3020008C3020008C3020008C3020008BB
:10011000C3020008C3020008D1590008C302000846
:10012000C3020008C3020008C3020008C30200089B
:10013000C3020008C3020008C3020008C30200088B
:10014000C3020008C3020008C3020008C30200087B
:10015000C3020008C3020008C3020008C30200086B
:10016000C3020008C3020008C3020008C30200085B
:10017000C3020008C3020008C30200080000000018
:10018000C3020008C3020008C3020008C30200083B
:10019000C3020008C3020008C3020008C30200082B
:1001A00055490008C302000815080008C3020008EA
:1001B000C3020008C3020008C3020008C30200080B
:1001C000C3020008C3020008DFF814D000F040F9B1
:1001D00000F0D2F8004800472DD1000800F017F9D0
:1001E00040A200202D4B19680868B0E8F04F80F35A
:1001F0000988BFF36F8F4FF0000080F311887047BC
:100200000000000008480068006880F308884FF08C
:10021000000080F3148862B661B6BFF34F8FBFF35E
:100220006F8F00DF00BF00BF08ED00E0DFF80C00BB
:10023000016841F470010160704700BF88ED00E083
:10024000EFF30980BFF36F8F144B1A681EF0100F85
:1002500008BF20ED108A20E9F04F106009B44FF07C
:10026000500072B680F31188BFF34F8FBFF36F8FCA
:1002700062B60DF08FFD4FF0000080F3118809BCCD
:1002800019680868B0E8F04F1EF0100F08BFB0EC16
:10029000108A80F30988BFF36F8F704758000020E1
:1002A000EFF3058070470000064880470648004786
:1002B000FEE7FEE7FEE7FEE7FEE7FEE7FEE7FEE716
:1002C000FEE7FEE77D590008C90100082DE9F05F4F
:1002D0000546002092469B468846064681464024B5
:1002E0001BE0284641464746224600F07BF853462D
:1002F0005A46C01A914110D311461846224600F0C2
:1003000062F82D1A67EB01084F46224601200021B2
:1003100000F059F817EB00094E41201EA4F101042A
:10032000DFDC484631462A464346BDE8F09F40EAB6
:1003300001039B0703D009E008C9121F08C0042A63
:10034000FAD203E011F8013B00F8013B521EF9D24A
:100350007047D2B201E000F8012B491EFBD2704772
:100360000022F6E710B513460A4604461946FFF781
:10037000F0FF204610BD000070B5054C054D03E0B0
:10038000206820448047241DAC42F9D170BD000094
:1003900080B602088CB602082DE9F04107461546E2
:1003A0000E4610200CF048FF04000AD06760C4E934
:1003B000026500F027F80168216004600020BDE8B4
:1003C000F0810120FBE7202A04DB203A00FA02F149
:1003D000002070479140C2F1200320FA03F3194333
:1003E00090407047202A04DB203A21FA02F00021D5
:1003F000704721FA02F3D040C2F120029140084335
:1004000019467047004870479401002070472DE955
:10041000F0410646FFF7F6FF8046454613E016B169
:10042000E068B0420ED120682860D4E90101D8F814
:100430000070884720460CF0E3FCD8F80000B84272
:10044000EBD100E025462C68002CE8D1BDE8F08116
:10045000064C074D06E0E06840F0010394E8070011
:1004600098471034AC42F6D3FFF7B2FE18B6020834
:1004700038B60208704770B58C1810F8015B15F09B
:10048000070301D110F8013B2A1106D110F8012B06
:1004900003E010F8016B01F8016B5B1EF9D12B072B
:1004A00005D40023521E0DD401F8013BFAE710F8E1
:1004B000013BCB1A921C03E013F8015B01F8015BCE
:1004C000521EF9D5A142D8D3002070BD10B5012429
:1004D0000348610301F016F800B10024204610BD66
:1004E000000802400146014803F0BEB9280400207C
:1004F000044810B503F0CAF9042801D0012010BD4A
:10050000002010BD2804002010B500F015F80128C7
:1005100001D0022010BD074803F0CEF9040006D137
:1005200004484FF4006103F065F800B1012420464F
:1005300010BD00002804002008B501208DF800003F
:10054000FFF7C4FF10B900208DF800009DF80000EF
:1005500008BD000013460A4610B5002401460348B2
:1005600003F038FA00B10124204610BD2804002011
:10057000034801214FF0FF3240680CF003BF000038
:100580001400002013460A4610B500240146034813
:1005900003F09EFA00B10124204610BD280400207B
:1005A0002DE9F04F95B0584D4FF0000B06465C46D4
:1005B000CDF844B0CDF848B0CDF84CB0A86801698A
:1005C00068788847002830707ED000240DF1100A2A
:1005D0000DF1380908AF8BE0A8680DF12C080AEB83
:1005E000440208EB44014369687898472878012859
:1005F00007D138F8142029F814203AF8141027F8F5
:100600001410810705D538F81410C1F5805129F868
:100610001410410705D53AF81410C1F5805127F898
:100620001410000707D538F8140027F814003AF81A
:10063000141029F81410DFF8D48039F8140058F891
:100640002410884201D9421A00E00A1A2F491FFAE1
:1006500082FC37F81420143151F824309A4201D921
:10066000D31A00E09B1A9BB26344052B03D948F8C8
:10067000240041F8242095F801C0BCF1700F26D069
:1006800058F8242006EB44006B885A43120B428032
:1006900051F82410AA885143090B818113A82146DF
:1006A00012AB009011AA60460CF040FC3019119971
:1006B0008175129980F82010139979B101290FD012
:1006C000022910D0032900E01AE010D10DE006EB5A
:1006D0004401488037F814008881DFE7012100E0F9
:1006E0000221C17603E00321FBE780F81BB0641C04
:1006F0003078A0423FF670AF304600F009F804466B
:1007000015B02046BDE8F08F2C010020789700201E
:10071000F8B50446144800266946009635464078E8
:100720000CF0F4FB0098182816D005DC68B11028EE
:100730000DD0142806D10CE01C280FD040280FD073
:1007400049280FD001252846F8BDA662FBE7012005
:1007500000E00220A062F6E70320FBE70420F9E7AF
:100760000520F7E70620F5E72C01002070B50C4CBA
:1007700000260C4D60807020A18029688847696838
:1007800070208847512802D00326304670BDA560EE
:100790007020607008212170E9688847F5E7000043
:1007A0002C010020FC000020FEE70000144A10B5D8
:1007B000136823F001031360124A12680123AAB9D7
:1007C000114A12684FF08A44B4EB025F0ED10F4A0F
:1007D00013601368002BFCD10C4A083A10601068B3
:1007E000884201D0002010BD012010BD084A93604E
:1007F0009368002BFCD1106010688842F4D0F1E7B8
:10080000002000E0002004E00010005C084C0258CA
:1008100000300240014800F06BBB0000D014002003
:10082000F0B5059C44EA034503685C6C04F0404461
:100830002C435C640368DA634268B2F5403F02D03F
:100840000068C160F0BD01F47F42856801F47F0457
:10085000224301F07F4301F47F0701F47F46CCB2CD
:10086000BDB1012D16D001F47F02C1F3C401D20C39
:10087000022D11D0032D14D0320B390D15011A0F92
:1008800045EA0123210943EA02320A4300688263F0
:10089000F0BD1A432243F9E7B30A5B0143EAC222DF
:1008A000F3E7F40ADB0F640144EA822242EAC3322E
:1008B000EBE730B50468256825F4802525600468D9
:1008C00063608368402B036803D099600068C2604E
:1008D00030BD9A600068C16030BD7047704700222B
:1008E000AFF300800E4B70B505465C7A0120002CFA
:1008F00014D15E7A03F108009C555E7A03EB8606FC
:1009000075605D7A2A54587A421C5A723A232F2213
:10091000303008704B7020468A70CC7070BD00007B
:1009200054150020F0B5D1E90125D1E90343D1E9FF
:1009300005762A43D1F800C044EA0304D1E907351B
:1009400042EA0402496A42EA0702BCF1010F42EAA4
:10095000060208D004681A432A430A43E30BDB0368
:100960001A4302600BE0066844682B4326F4F845FE
:1009700029430B4303606FF30E04224342600020BF
:10098000F0BD426942EA410141610020704738B53B
:1009900091E81C00C9686FF01F051A4305EB441469
:1009A00044EA41210A4300920261002038BD000060
:1009B0002DE9F043914691E81C006FF00F05521E9F
:1009C0002E0105EB03131A430B7E06EB04268C8ADB
:1009D0002F034FEA054C0D8A32434FF07F4808EB56
:1009E0000366CB68B9F1010F07EB05450CEB045426
:1009F0000CD081683F1107EB03331A432A4322438B
:100A0000324301F070410A43826011E08168DFF8EF
:100A100028C0C7681B03A3F5805323432A4301EA78
:100A20000C0132430B43836007F070442243C260E1
:100A30000020BDE8F0830000FF0F0FFFF0B5012696
:100A4000044600201E2301E05B1E05D303F01F07B0
:100A500006FA07F50D42F7D072B1082A0AD0102A1B
:100A600005D0182A01D1072B06D30120F0BD082B91
:100A7000FBD201E0102BF8D22368596121688B6802
:100A800023F0180313438B60F0BD000010B5040081
:100A900010D0607F20B900202077204600F032F887
:100AA00021790220607739B1D4E902122046FFF79C
:100AB000C5FF48B1012010BD216811484861206878
:100AC000816821F0180181606079A0B121682069F6
:100AD0000861012220686369816821F0600119437F
:100AE00081602068A369816821F0800119438160D9
:100AF0006277002010BD21684FF0FF30E8E700006A
:100B0000B71DC10408B500680649884208D10648E7
:100B1000016841F480510160006800F48050009049
:100B200008BD0000003002403038024070B50400BB
:100B300003D094F8350010B104E0012070BD2046C8
:100B400000F03AF8022084F835002068194A01685C
:100B500011400160D4E90453E168D4E9010229435A
:100B60001843A36908431043D4E908151843084300
:100B700054F8281B28432CCC10430A6818432843F8
:100B80001043086054F8300C343C102805D122681A
:100B9000E17FE06961F31F6090612068002201211C
:100BA000C36843F01E03C360E26484F83510104646
:100BB00070BD000007F0E0FF70B586B00446142158
:100BC0006846FFF7CDFB37492068884268D1364830
:100BD000016841F001010160006800F0010005902A
:100BE0003148001F016841F010010160016801F007
:100BF00010010591016841F008010160016801F0F0
:100C000008010591016841F040010160016801F0AF
:100C100040010591016841F080010160016801F027
:100C200080010591016841F0010101600068002424
:100C30000D26694600F00100059060200090022515
:100C40001A48CDE90154CDE9034600F06FFB0820B6
:100C50000090CDE9015416486946CDE9034600F0FD
:100C600065FB28020090CDE9015412486946CDE9A0
:100C7000034600F05BFB4FF4BC400090CDE901540B
:100C80000D486946CDE9034600F050FB5020009026
:100C9000CDE9015409486946CDE9034600F046FB19
:100CA00006B070BD0000055034380240001002400C
:100CB000000C024000180240001C024000000240EC
:100CC0002DE9F04104460068016821F00501091D85
:100CD000016000F029FC002605464FF47A770FE00A
:100CE00000F022FC401BB8420AD9E16B032084F8D3
:100CF000386041F02001E16384F83900BDE8F081FB
:100D000020680068C007EBD120680121026822F446
:100D10000C52026084F83910002084F83860EDE746
:100D2000F8B504461D46DDE9063094F83860012E1A
:100D300018D0012784F83870022684F839602668B4
:100D400072612A4600902046FFF76AFD206801681C
:100D500041F40C5101602068016841F0010101601B
:100D60000020F8BD0220F8BD704700002DE9F041D9
:100D7000044600680129016800F1240541F00401DE
:100D8000016001D125681C3500F0CEFB0027064626
:100D90004FF47A7810E000BF00F0C6FB801B40459E
:100DA0000AD9E16B032084F8387041F02001E16337
:100DB00084F83900BDE8F08128688006ECD420680A
:100DC0000121026822F46452026084F83910002084
:100DD00084F83870EEE7000070B590F83820012AEA
:100DE00023D0244C012680F83860022300EB011246
:100DF00080F83930158CD36918320A2B43EA05453F
:100E000015D0092B13D0137B45EA0363056899B10C
:100E1000E969A1431943E961016813680B615168ED
:100E20000A291BD0092919D01DE0022070BDD36802
:100E300003F07F432B43E9E7696AA14319436962E1
:100E4000016813688B6151680A2901D009290AD108
:100E5000D168026821F07F41916204E0D1680268A4
:100E600021F07F411162002180F8396080F838104C
:100E7000084670BD0F0003FF70B5040011D01B4879
:100E80000068000217D520680168C90703D0204612
:100E9000FFF716FF04E0416A890604D5002106E049
:100EA00048B1012070BDC069800604D501212046EB
:100EB000FFF75CFFF4E7216800253F200D60216803
:100EC000886020680561206885612068C5612068A8
:100ED000456220684563204600F0C6F8E56384F863
:100EE0003950002084F8385070BD0000303802407E
:100EF0002DE9F0470446006800274FF004084FF042
:100F0000010946680568F10714D0E90512D50368A0
:100F100023F480730360E06B40F00100E06320681D
:100F2000C0F8089084F8398084F83870616909B194
:100F300020468847B00615D5A80413D5206820227E
:100F4000036823F40053036020688260E06B40F084
:100F50000200E06384F8398084F83870616909B16F
:100F600020468847300715D5280513D52068082264
:100F7000036823F40063036020688260E06B40F044
:100F80000400E06384F8398084F83870616909B13D
:100F90002046884770070CD568050AD52068026886
:100FA00022F4806202602068C0F80880204600F0C9
:100FB0005AF8B00713D5A80511D520680222036896
:100FC00023F40073036020688260E06BE06384F8C0
:100FD000399084F83870216909B120468847F006B5
:100FE00012D5E80410D52068016821F48051016011
:100FF000226810219160E16BE16384F8399020460A
:1010000084F83870FFF7B0FEBDE8F08770B50400D3
:1010100004D094F83900002510B106E0012070BD1D
:10102000204684F8385000F031F8022084F8390066
:10103000D4E900030121026822F440321A4302601D
:101040002068A368426B22F007021A4342632068BB
:10105000E368026C6FF30D021A430264E56384F8DF
:101060003910002070BD704700680649884207D1DA
:101070000548016821F4000101605A2000F0E2BF38
:101080007047000000B002403038024008B50068E8
:101090000B49884212D10B48016841F400010160FC
:1010A00000680022052100F4000000905A2000F0A2
:1010B000E7FFBDE808405A2000F0D5BF08BD00009A
:1010C00000B0024030380240F8B50446069894F863
:1010D0003850012D15D0012684F83860022584F897
:1010E000395000902046FFF79BFB2068016841F4CF
:1010F0000C5101602068016841F00101016000208D
:10110000F8BD0220F8BD406D70472DE9F04104465E
:1011100090F8340000250128A66D0ED094F835C053
:101120000127002084F83470BCF1010F07D002259C
:1011300084F834002846BDE8F0810220FBE702274E
:1011400084F8357060652046FFF7B3FB94F85C10B7
:101150003F208840B0602068016841F016010160BE
:101160002068416941F080014161206C20B1206814
:10117000016841F0080101602068016841F0010147
:101180000160D7E770B5044600F0CEF90546601C53
:1011900002D004480078044400F0C6F9401BA04285
:1011A000FAD370BD480000202DE9F04FDFF84CE184
:1011B00000224FF001094FF00F0A00BF09FA02F4B4
:1011C00001EA0403A3427CD122F003067644970788
:1011D000D6F808C83F0FDFF828810AFA07FB404518
:1011E0000BEA0C0502D14FF0000C40E0DFF814C10F
:1011F000604502D14FF0010C39E0DFF80CC16045C9
:1012000002D14FF0020C32E0DFF800C1604502D19C
:101210004FF0030C2BE0DFF8F8C0604502D14FF02F
:10122000040C24E0DFF8ECC0604502D14FF0050C5F
:101230001DE0DFF8E4C0604502D14FF0060C16E077
:10124000DFF8D8C0604502D14FF0070C0FE0DFF89F
:10125000D0C0604502D14FF0080C08E0DFF8C4C0F0
:10126000604502D14FF0090C01E04FF00A0C0CFA76
:1012700007FCAC451DD1D6F80888DFF8ACC028EAD9
:101280000B08C6F808880CF10405DCF800802E1D58
:10129000371D28EA0308CCF80080D5F800C02CEAF6
:1012A000030CC5F800C035689D4335603D689D431B
:1012B0003D6003230768D5084FEA42084FEA427CA5
:1012C00000E015E04FEADC6C03FA08F39F43076087
:1012D0000AFA0CF600EB85052F6AB7432F62856882
:1012E0009D4385604568A5434560C4689C43C460D0
:1012F000521C102AFFF462AFBDE8F08F00300140AD
:10130000000002400004024000080240000C0240BD
:10131000001002400014024000180240001C02406D
:101320000020024000240240003C01402DE9F84F1B
:10133000DFF89CE100224FF001084FF0030B4FF063
:101340000F0A00BF0B6808FA02F42340A34271D1D0
:101350004D68022D01D0122D0FD1D5080E69570707
:1013600000EB8505A9462D6AFF0E0AFA07FCBE4070
:1013700025EA0C052E43C9F820600F795500066850
:101380000BFA05FC07F0030726EA0C06AF403743CB
:1013900007604E68012E05D0022E03D0112E01D019
:1013A000122E0ED18668CF6826EA0C06AF4037436E
:1013B000876046680F79A643C7F300179740374305
:1013C0004760C4688E6824EA0C04AE402643C660B9
:1013D0004C68E40075D53F4C256845F48045256090
:1013E000246822F00306950704F4804400943A4CE4
:1013F0002D0F2644D6F80848DFF8E0C00AFA05F7B2
:10140000604524EA070401D100272EE0344FB8429A
:1014100001D1012729E0334FB84201D1022724E04E
:10142000314FB84201D103271FE0304FB84202D1FB
:1014300004271AE045E02E4FB84201D1052714E0F9
:101440002C4FB84201D106270FE02B4FB84201D1F3
:1014500007270AE0294FB84201D1082705E0284FA5
:10146000B84201D1092700E00A27AF40274375465B
:10147000C6F808784E68DEF80040F60324EA030454
:1014800000D51C43124E2C60361D4D683468AD03E8
:1014900024EA030400D51C430D4F346008374D681F
:1014A0003C68ED0224EA030400D51C43084D3C606F
:1014B0000C354E682C68B60224EA030400D51C43A0
:1014C0002C60521C102AFFF43DAFBDE8F88F0000DD
:1014D000003C01404438024000300140000002401E
:1014E0000004024000080240000C024000100240CC
:1014F0000014024000180240001C0240002002407C
:10150000002402400069084000D001207047426971
:1015100031EA020200D10904816170470AB1816198
:1015200070470904FBE7000001488068704700002D
:101530004800002030B590F84120202A24D190F8AE
:101540004020012A20D0012380F84030242280F856
:101550004120202300240268156825F0010515604C
:101560000268156825F480551560026815680D43FA
:10157000156001680A6842F001020A6080F8413093
:1015800080F84040002030BD022030BD30B590F8DA
:101590004120202A22D190F84020012A1ED0012388
:1015A00080F84030242280F8412020240025026861
:1015B000136823F0010313600268136823F4706357
:1015C00043EA0121116001680A6842F001020A60E1
:1015D00080F8414080F84050002030BD022030BDEE
:1015E00010B5040014D0242084F84100206801685C
:1015F00021F001010160204600F0CAF9002060647A
:1016000084F84100206384F8420084F8400010BD53
:10161000012010BD90F841007047000070B5040033
:1016200004D094F84100002510B106E0012070BDFF
:10163000204684F8405000F0CFF9242084F841007F
:101640002068016821F001010160D4E9001020F058
:10165000706008612068816821F400418160E06861
:1016600021680128A06806D040F404408860E06842
:10167000022803D006E040F40040F7E721684FF469
:101680000060486020212068114A4368134343608A
:101690002068C26822F40042C26054F8106B0DCC7E
:1016A000104340EA0320F06054F81C3CD4E90002E7
:1016B0001043186054F81C0D026842F001020260E9
:1016C000656484F84110256384F84250002070BDA1
:1016D000008000022DE9FF4F83B0044690F84100DE
:1016E0009A469346DDE91087DDF84890202874D1AA
:1016F0005FEA080014D09FB194F8400001286CD034
:10170000012084F84000FFF70FFF0122064619234D
:101710000090D103204602F0ADFF002871D103E014
:101720004FF4007060646CE00025C4F8248022212E
:1017300084F84110402084F8420065646785534670
:1017400065635A4604992046CDE9009602F018FFD9
:1017500010B184F8405054E0618DFF2734484FF0B9
:101760008078FF294FF0007A04D927853A4643460E
:10177000009005E0618D53462185009094F8282063
:101780002046049902F060FF00224B4604212046C7
:10179000009602F06FFFA0BB2068616A406A087083
:1017A000606A401C6062208D401E81B22185608D80
:1017B000401E6085608DD8B1D1B900224B46802192
:1017C0002046009602F056FFD8B9608DFF2805D953
:1017D00027853A464346009506E026E0608D53464D
:1017E0002085009594F828202046049902F02CFFCB
:1017F000608D0028C8D132464946204602F067FF76
:1018000018B1012007B0BDE8F08F21682020094AF7
:10181000C86121684B6813404B6084F8410084F82C
:101820004250002084F84050ECE70220EAE7000034
:101830000024008000E800FE2DE9FF4F83B004463D
:1018400090F841009A469346DDE91087DDF848900C
:10185000202871D15FEA080014D09FB194F84000AD
:10186000012869D0012084F84000FFF75DFE0122C5
:10187000064619230090D103204602F0FBFE002803
:101880006ED103E04FF40070606469E00025C4F895
:101890002480212184F84110402084F842006564AE
:1018A0006785534665635A4604992046CDE90096FC
:1018B00002F098FE10B184F8405051E0608DFF278F
:1018C0004FF08078FF284FF0007A04D927853A46F8
:1018D0004346009505E0608D53462085009594F8B9
:1018E00028202046049902F0AFFE324649462046A1
:1018F00002F014FFA0BB606A216800788862606A09
:10190000401C6062608D401E6085208D401E80B24C
:101910002085618DD9B1D0B900224B468021204667
:10192000009602F0A7FED8B9608DFF2805D927855B
:101930003A464346009506E026E0608D53462085F2
:10194000009594F828202046049902F07DFE608DD1
:101950000028CAD132464946204602F0B8FE18B1E6
:10196000012007B0BDE8F08F20682021074AC1613F
:10197000206843681340436084F8411084F8425063
:10198000002084F84050ECE70220EAE700E800FE7F
:101990000C4A01680C48914207D1016821F40011FA
:1019A00001600A484FF4407109E0094A914208D1A8
:1019B000016821F40001016006484FF4C071FFF78F
:1019C000F3BB70470054004040380240000402401E
:1019D000005C0040001C024070B586B00446142133
:1019E0006846FEF7BDFC25681220224C0122224EDB
:1019F000042320491034B5421BD10D6845F002057F
:101A00000D6009680025049301F0020105914FF46F
:101A10004071CDE9001019486946CDE90225FFF76C
:101A200085FC206840F400102060206800F400105D
:101A30001DE0134EB5421BD10D6845F080050D60C9
:101A400009680325049301F0800105914FF4C071EA
:101A5000CDE900100B486946CDE90225FFF766FC89
:101A6000206840F400002060206800F40000059029
:101A700006B070BD303802400054004000040240FF
:101A8000005C0040001C024002488168027811445A
:101A90008160704748000020032010B500F010FB63
:101AA000002000F005F800F0B1FA002010BD0000A1
:101AB00010B500220146362088B000F0E1FA362049
:101AC00000F0D1FA1348016841F01001016000688C
:101AD00005A900F010000690684600F0AFFF00F086
:101AE000D3FF0D49400000220C4CB0FBF1F10C4833
:101AF00040F2E7330460C0E90332491EC0E9011235
:101B000002F052F910B1012008B010BD044802F0F3
:101B1000BBF9F9E74038024040420F000010004096
:101B2000F80600202DE9F041044690F8A000164682
:101B30000F4601281DD0012584F8A050022084F80A
:101B4000A10006EB860000EBC600342204EB800007
:101B50003830FEF7ECFB32463946204602F000FFF3
:101B6000216800204D6284F8A15084F8A000BDE8EF
:101B7000F0810220FBE710B5044600F015F90020C3
:101B8000C4F8A40084F8A10084F8A00010BD704738
:101B90002DE9F0410446006800274FF00408856BEA
:101BA000466B690715D5710713D5426B22F0040205
:101BB00042632068C0F83C80D4F8A40040F00100E3
:101BC000C4F8A40084F8A180204684F8A070FFF730
:101BD000DEFFA80716D5B00714D520680222436B94
:101BE00023F0020343632068C263D4F8A40040F0EA
:101BF0000200C4F8A40084F8A180204684F8A070F4
:101C0000FFF7C5FF05EA06004FF00108C0070ED038
:101C100021684A6B22F001024A632168C1F83C80C6
:101C200084F8A180204684F8A07000F091F828077D
:101C300010D530070ED520680822436B23F0080327
:101C400043632068C26384F8A180204684F8A070B2
:101C500000F090F9BDE8F0812DE9F041040004D0D6
:101C600094F8A100002518B107E00120BDE8F0813B
:101C7000204684F8A05000F0CDF83448022184F8C2
:101C8000A110012202CC8B6923F070438B6194E890
:101C90004A001943E3681E4354F8043D31439E69EA
:101CA0003143996121688B6803408B602168A68A63
:101CB000A7698B683B4343EA06438B602168CB6886
:101CC0000340CB602168A38B276ACE683E4346EA77
:101CD0000346CE6021680B6903400B612368A68C24
:101CE000A76A1969394341EA0641196121684B69BC
:101CF00003404B612068A38D266B4169314341EA63
:101D000003414161236894F8351094F83600DE6A87
:101D1000000406F07F46DE62236840EA012094F862
:101D20003460D96A31430143D9622068416B41F084
:101D3000060141632068816941F001018161C4F8B5
:101D4000A45084F8A120002090E7000000F800F0E3
:101D5000124910B5124A134C0B6811888B4212D1EC
:101D6000518800F0E5F8206890F85610491C80F87A
:101D7000561005F00DFE206806F0F8FEBDE8104094
:101D8000002007F048BE00F0D3F8002007F045FE21
:101D9000206801688969BDE8104008474068014033
:101DA0003A0000208001002010B5006812498842E6
:101DB00020D11248016821F0806101601048102193
:101DC000FFF7F2F90F484EF6FF71FFF7EDF90E48F5
:101DD000F721FFF7E9F90D484FF48051FFF7E4F9D7
:101DE0000B484FF44641FFF7DFF9BDE8104058209B
:101DF00000F028B910BD00000068014044380240DE
:101E00000010024000240240002802400018024056
:101E10000020024070B586B0044614216846FEF7E3
:101E20009FFA3C492068884272D13B48016841F0E2
:101E300080610160006800F08060059036481438C9
:101E4000016841F010010160016801F01001059185
:101E5000016841F400710160016801F400710591AD
:101E6000016841F480610160016801F480610591BD
:101E7000016841F040010160016801F040010591F5
:101E8000016841F480710160006800240E266946F3
:101E900000F4807005901020009002251F48CDE9C5
:101EA0000154CDE90346FFF741FA4EF6FF7000906A
:101EB000CDE901541A486946CDE90346FFF736FAE1
:101EC000F7200090CDE9015416486946CDE9034654
:101ED000FFF72CFA0921E8020090CDE90154CDE981
:101EE000034111486946FFF721FA4FF4464000903C
:101EF000CDE901540D486946CDE90346FFF716FACE
:101F000000220521582000F0BBF8582000F0ABF863
:101F100006B070BD00680140443802400010024025
:101F20000024024000280240001802400020024025
:101F300070B590F8A020012A18D00D4D012380F82B
:101F4000A030022280F8A120002450F8A02B566B6C
:101F500026F001065663296050F8A01C4A6B42F037
:101F600001024A6343700470204670BD022070BDB8
:101F70004068014070470000F0B590F8A030012B98
:101F800037D0012680F8A06002EB8204022380F89B
:101F9000A13004EBC20400EB84039B6C5BB3012B08
:101FA0002BD0042B2BD0022B29D0032B27D0072B8F
:101FB00025D0012305684FF0B00C124F0CEBC21274
:101FC000114C5943AB583B40AB502368002743F0BA
:101FD0000103236003689D5845EA01459D5021682F
:101FE00041F00101216080F8A16080F8A0703846BE
:101FF000F0BD0220F0BD0423DCE70323DAE702236F
:10200000D8E70000FFFF00E0246801400C4882B0E0
:10201000016841F080510160006800F0805000903C
:102020000748001D016841F48041016000680022FA
:102030000F2100F480400090901E02B000F020B804
:102040004038024000280DDB410900F01F028900E2
:10205000012001F1E0219040C1F88001BFF34F8FD2
:10206000BFF36F8F7047002809DB410900F01F02A2
:102070008900012001F1E0219040C1F80001704782
:102080000E4BF0B41B680D46C3F30223C3F10706E1
:10209000042E00D90426191D072901D2002300E0CF
:1020A000DB1E012404FA06F19C40491E2940641EEF
:1020B000994014402143F0BC0AF001BE0CED00E051
:1020C000064900F0070210B54FF6FF040868044BFC
:1020D000204040EA02201843086010BD0CED00E0EB
:1020E0000000FA051848F8B5016841F08051016018
:1020F0000068164C00F080500090206840F480305A
:102100002060FFF711FA4FF47A76054605E000BF2C
:10211000FFF70AFA401BB0420FD86068C003F7D53A
:10212000206840F400302060FFF7FEF9054606E025
:10213000FFF7FAF9401BB04201D90320F8BD6068EF
:102140008003F5D50020F8BD403802400070004003
:102150000248016841F480710160704700700040DE
:10216000F8B50446FFF7E0F907465CB194F8400083
:10217000012809D0012684F84060002594F8410028
:1021800020B10BE00120F8BD0220F8BD84F84050DA
:10219000204600F045F841F28830A06420686FF0D6
:1021A000FF03A168026803EB012322F4F8511943ED
:1021B0000160A06C002220213B460090204602F0E6
:1021C000C7FC30BB2268D4E9077C94F804E0E168DE
:1021D00013683943104F4CEA0E6EDFF840C03B40A5
:1021E00041EA0E01194311602168D4E90527B4F8CA
:1021F00010E04B683A4303EA0C0343EA0E431A43E8
:102200004A6021680A6842F001020A60656484F845
:10221000416084F84050F8BD2FFFFF00FEF8E0FF5A
:102220002DE9F04387B0044614216846FEF798F87C
:102230002B49206888424FD12A48016841F00201A9
:102240000160006800F00200059026480838016827
:1022500041F010010160016801F010010591016871
:1022600041F002010160016801F00201059101687D
:1022700041F0080101600068092701AA4FF0040835
:1022800000F00800CDF80080022469460025CDE961
:1022900004700326144882E87000FFF747F80A210B
:1022A000DFF848904020CDE903618DE831006946B0
:1022B0004846FFF73BF801AACDF80080694648463A
:1022C00082E8F000FFF732F84FF4605069468DE87D
:1022D000F1000748FFF72AF807B0BDE8F0830000D7
:1022E000001000A0383802400010024000040240F4
:1022F000000C0240F0B5444BB0F5002F404D4FF4B8
:10230000801E404EA3F10404404F03F104024049F3
:1023100084464FF000000DD0F44516D1D2F800C02D
:102320001CF4400C3CD0BCF5800F4ED0BCF5000F27
:102330000BD109E0D2F800C01CF4401C06D0F445D3
:1023400019D0BCF5001F00D13846F0BD0868400226
:10235000086800F03F0002D4B5FBF0F001E0B6FBE6
:10236000F0F019681B681468C1F30362C3F38813A3
:10237000C4F304213DE008684002086800F03F0013
:1023800002D4B5FBF0F001E0B6FBF0F02168236861
:102390001468C1F3036204F01F01C3F3881328E03B
:1023A00008684002086800F03F0002D4B5FBF0F076
:1023B00001E0B6FBF0F01C681B681168C4F303620F
:1023C000C3F38813C1F3042113E0086840020868CE
:1023D00000F03F0002D4B5FBF0F001E0B6FBF0F0F6
:1023E000256823681168C5F3036201F01F01C3F378
:1023F00088134343491CB3FBF2F0B0FBF1F0F0BD8E
:102400000024F40040787D01883802400080BB0041
:10241000043802402DE9F84F04460078DFF8249490
:102420004FF000063746C0070ED0D9F8001021F44F
:102430000001C9F80010D9F80010626B1143C9F807
:102440000010606B00B90126FE4D20688435000342
:102450000ED5E16B286820F4401008432860E06B3B
:10246000B0F5801F01D010B102E0012600E0012785
:1024700020684FF4800BC0020CD5216C286820F432
:10248000400008432860206C584501D1012601E036
:1024900000B901272068C10100D50126800666D554
:1024A000E8483830016841F0805101600068DFF889
:1024B00098A300F080500090DAF8001041F4807189
:1024C000CAF80010FFF730F8804605E0FFF72CF857
:1024D000A0EB080064287DD8DAF80000C005F5D527
:1024E000DFF8608308F16808D8F8000010F4407045
:1024F0002AD0218E01F44071814225D0D8F80010F5
:10250000D8F8002021F4407142F48032C8F800204D
:10251000D8F8002022F48032C8F80020C8F8001053
:10252000D8F80000C0070FD0FEF7FEFF824607E094
:10253000FEF7FAFFA0EB0A0141F288308142CAD8C7
:10254000D8F800008007F3D5206BC0F301210329E0
:102550007ED0D9F8001021F4F811C9F80010228EAD
:10256000D8F80010C2F30B021143C8F8001020780D
:10257000C00607D5286820F0807028602868A16B05
:10258000084328602188AF488830490405D5626E29
:10259000016821F44031114301602188090405D507
:1025A000A26E016821F44021114301602168C90332
:1025B00005D5E26E016821F44011114301602168E4
:1025C000890305D5226F016821F4400111430160A0
:1025D000217800E018E1490605D5626C016821F018
:1025E0000301114301602178090605D5A26C016839
:1025F00021F00C01114301602188C90505D5E26C69
:10260000016821F03001114301602188890505D559
:10261000226D016821F0C001114301602188490544
:1026200005D5626D016821F4407111430160218874
:10263000090505D5A26D016821F4406111430160CF
:102640002188C90407D5E26D016821F4405100E0FA
:1026500041E0114301602188890405D5226E01689B
:1026600021F44041114301602168490205D5A26F60
:10267000016821F080611143016021684FF0006A18
:10268000890209D5E26F016821F000611143016000
:10269000E16F514500D1012721680A0700D50127C4
:1026A000490305D5626F016821F040711143016053
:1026B0002168090206D5D4F88020016821F08051F4
:1026C00011430160DFF88491012E0ED02068B0F133
:1026D000007F0AD08FE05E4AD9F80030104023F422
:1026E000F8120243C9F8002039E7D9F800004E4635
:1026F00020F08060C9F80000FEF716FF804605E074
:10270000FEF712FFA0EB080064287DD830680001B6
:10271000F6D421784B487C30C90712D0616B81B95F
:10272000237A62680168D0F800C09201C1F30141C8
:1027300042EA0142CCF3036142EA016141EA0371DA
:10274000016021680A0303D5E26BB2F5801F04D053
:10275000C9021AD5216C594517D16368016894F8EC
:102760000CC002689B01C1F3014143EA0141C2F37D
:10277000027241EA0C6141EA027101602968626AF1
:1027800021F01F01521E114329602168C90110D593
:10279000238A62680168D0F800C09201C1F3036126
:1027A00042EA034242EA0162CCF3027142EA017159
:1027B0000160216889010CD56168228A237B94F825
:1027C00008C0890141EA024141EA036141EA0C7112
:1027D00001603168B04641F080613160FEF7A4FECF
:1027E000064604E0FEF7A0FE801B64280CD8D8F84B
:1027F00000000001F6D56FB3D9F800004E4620F076
:102800008050C9F8000000E079E0FEF78DFE074631
:1028100005E000BFFEF788FEC01B64286FD8306853
:10282000C0438000F6D50748216880300A0301D5EF
:10283000E26B1AB1C90225D5216C19BB6369016825
:10284000277E08E00838024000700040003802404F
:10285000FFFCFF0F5AE00268C1F301419B0143EA0C
:102860000143C2F3027143EA076242EA0171016067
:1028700029686FF0FF03A26A21F4F85103EB0222EA
:10288000114329602168890212D5E16F51450FD1AA
:10289000238C6269016807689201C1F3036142EA0F
:1028A000034242EA0162C7F3027142EA0171016028
:1028B0002178090716D561690268D0F800C08B013C
:1028C000277FC2F30362CCF3014143EA014141EAAD
:1028D000026141EA077101602868E16A20F4403032
:1028E00008432860306840F080503060FEF71CFEDE
:1028F000044607E0FEF718FE001B642802D90320F7
:10290000BDE8F88F3068C0438000F3D40020F7E7BB
:102910002DE9F04705000F4663D0444E306800F0C3
:102920000F00B84209D2306820F00F003843306001
:10293000306800F00F00B84253D128683C4C810742
:1029400012D5400703D5206840F4E0502060287875
:10295000000703D5206840F460402060A968206823
:1029600020F0F000084320602878C0072AD03049C2
:1029700068680839012810D00968022810D0890732
:1029800000292EDA216821F0030101432160FEF7BE
:10299000CBFD804641F288390DE009688903EFE7F5
:1029A0008901EDE7FEF7C0FDA0EB0801494502D91A
:1029B0000320BDE8F0876868216801F00C01B1EBE5
:1029C000800FEFD1306800F00F00B8420BD93068AB
:1029D00020F00F0038433060306800F00F00B8423C
:1029E00001D00120E5E72878400705D5E96820688F
:1029F00020F4E050084320602878000706D52869B5
:102A0000216821F4604141EAC000206000F05CF8D8
:102A10002168084AC1F30311515CC84006490860A7
:102A20000020FFF745F80020C3E70000003C02400B
:102A30000838024004F50008540000200D4A0F2316
:102A400030B503604FF4E0540B4B156805F00305F7
:102A50004560156805F0F0058560156805F4E055DA
:102A6000C560126804EAD2020261186800F00F0023
:102A7000086030BD08380240003C02400148006850
:102A800070470000540000200449054809680068A8
:102A9000044AC1F38221515CC840704708380240A3
:102AA0005400002014F5000804490548096800682E
:102AB000044AC1F34231515CC840704708380240B3
:102AC0005400002014F50008154910B51548096890
:102AD00011F00C0213D01449042A0FD0082A0ED189
:102AE0000F4C241F2268236802F03F025B0207D5C7
:102AF0002068C0F38810A0FB010106E0084610BD65
:102B00002168C1F38811A1FB00010023FDF7DEFB62
:102B10002168C1F30141491C4900B0FBF1F010BD2F
:102B2000083802400024F40040787D012DE9F84F78
:102B300005004FF000076ED02878DFF81C93A9F14C
:102B4000040AC007AAF104044CD0D9F80010484682
:102B5000C1F38101012908D00068C0F38100022877
:102B60000AD1DAF80000400206D52068800339D582
:102B700068680028DFD035E06868B0F5803F0BD08A
:102B800010B1B0F5A02F11D0206820F48030206063
:102B9000206820F4802002E0206840F4803020602B
:102BA000686890B1FEF7C0FC06460AE0206840F471
:102BB00080202060F0E700BFFEF7B6FC801B642891
:102BC00072D820688003F7D50CE0FEF7ADFC06460E
:102BD00005E000BFFEF7A8FC801B6428F0D8206841
:102BE0008003F7D42878800742D5D9F800104846EA
:102BF00011F00C0F08D00068C0F3810002280BD13F
:102C0000DAF80000400207D42068800718D5E86889
:102C1000012800D114E01CE1E8680028206817D0E2
:102C200040F001002060FEF77FFC064605E000BF93
:102C3000FEF77AFC801B0228C2D820688007F7D5EF
:102C40002869216821F0F80141EAC00020600FE006
:102C500020F001002060FEF767FC064605E000BF9B
:102C6000FEF762FC801B02281ED820688007F7D47C
:102C70002878000729D5784869696C300029804692
:102C8000016812D041F001010160FEF74DFC0646DB
:102C900005E000BFFEF748FC801B022804D8D8F8E6
:102CA00000008007F6D510E089E021F00101016005
:102CB000FEF73AFC064604E0FEF736FC801B0228CD
:102CC0007DD8D8F800008007F6D4287840076BD567
:102CD000DFF8848108F13808D8F80000C0000BD470
:102CE000D8F8001041F08051C8F80010D8F8000062
:102CF000012700F08050009058480168C90512D49F
:102D00000168834641F480710160FEF70DFC0646C0
:102D100005E000BFFEF708FC801B64284FD8DBF8F5
:102D20000000C005F6D54C4EA868683601280AD0C8
:102D300008B1052811D0306820F0010030603068FB
:102D400020F0040002E0306840F001003060A86824
:102D5000A0B1FEF7E9FB83460CE0306840F00400C8
:102D60003060F0E7FEF7E0FBA0EB0B0141F28830AA
:102D7000814266D830688007F4D50EE0FEF7D4FBB8
:102D8000834607E0FEF7D0FBA0EB0B0141F2883051
:102D9000814256D830688007F4D42FB1D8F800109B
:102DA00021F08051C8F80010A869C8B3D9F8001004
:102DB000C1F3810102294CD00228206800E040E0E4
:102DC00020F08070206003D0FEF7AEFB05463BE0AC
:102DD000FEF7AAFB064604E0FEF7A6FB801B0228CE
:102DE0002FD820688001F7D4D5E90962D5E9070119
:102DF0001B4B570895F82C20084303EB074343EA85
:102E00008611084340EA026040F00050CAF8000012
:102E1000206840F080702060FEF786FB054606E0E3
:102E200015E000BFFEF780FB401B022809D8206890
:102E30008001F7D50BE000BFFEF776FB401B0228B0
:102E400002D90320BDE8F88F20688001F4D4002067
:102E5000F8E70120F6E70000083802400070004063
:102E60000000FFFFF0B5037F012B26D0012404777B
:102E7000022343770568CA26AB686E62532506684D
:102E800075620568EE6C26F00606EE640568EE6C69
:102E900040F608071643EE64BB430B4301688B60A2
:102EA00001688A6842F400628A600268FF21516208
:102EB0000021447701770846F0BD0220F0BD0000F4
:102EC0002DE9F041040002D0607F18B107E0012035
:102ED000BDE8F08100202077204600F041F8022074
:102EE0006077CA21226853205162216848622046D7
:102EF00001F05EFE002820684FF0FF0103D004229D
:102F000041626277E3E7154D012382682A408260BF
:102F1000D4E90026D4E9045790683D433043284360
:102F200090602268E068106120682289056945EA9E
:102F3000024202612068C26822F08002C2602068FA
:102F4000C26C22F00802C2642068A569C26C2A43E0
:102F5000C2642068416263770020B9E7BFFF8FFF3A
:102F600000680449884204D10348016841F40041E3
:102F70000160704700280040703802402DE9F05F82
:102F80000446007F0B46012843D002210120207710
:102F900061774FF00006206880684FEA4060BAB35E
:102FA000002800DB1E7358781A781F7B9978050279
:102FB00093F824C041EA0241186A45EA07459A6934
:102FC000294341EA0C65054315432268D3F81CC028
:102FD000CA215F6853204FF0FF0851624FF47A7A9C
:102FE000216847EA0C074FF0030B4862986AB0F576
:102FF000807F206881682DD021F400718160206875
:10300000816821F400518160FEF78EFA814655E017
:1030100002E00220BDE8F09F002800DB1E73187854
:1030200001F0BAFD0204587801F0B6FD42EA002230
:10303000987801F0B1FD197B024393F8240042EA2D
:10304000014201F0A9FD196A42EA006598690D4341
:103050000543BAE721F4807181602068816821F41A
:1030600080518160FEF760FA81460BE0FEF75CFA62
:10307000A0EB0900504505D92268C2F8248084F8E5
:103080001DB018E02068C068C007EFD02068C56197
:10309000206847642068816841F480711AE000BFAD
:1030A000FEF742FAA0EB0900504507D92268C2F8A2
:1030B000248084F81DB003202677ABE72068C06821
:1030C0008007EDD5206805622068876420688168E4
:1030D00041F40071816022680120C2F82480607789
:1030E0000020267796E700002DE9F0470446007F90
:1030F0000B46012821D04FF0010984F81C900221D1
:103100006177EAB159789878DA781B78090240EA51
:10311000024541EA433005432268CA2153205162E7
:1031200021684862204601F043FD4FF000064FF051
:10313000FF074FF0040860BB1AE00220BDE8F087EB
:103140005878C10603D500F0EF000A305870D878DF
:1031500001F022FD0204587801F01EFD42EA00222F
:10316000987801F019FD1978024342EA4135D3E716
:1031700021680F4805404D602068C16821F080013A
:10318000C1602068806880060AD4204600F088F874
:1031900030B121684F6284F81D8001202677CDE789
:1031A00021684F6284F81D9000202677C6E7000052
:1031B0003FFFFF002DE9F0470446007F0D46012840
:1031C00028D04FF0010A84F81CA002216177206802
:1031D0004FF0000680684FEA4060F2B1002800DB43
:1031E0002E7369782A78A8782B7B090240EA024777
:1031F00041EA034007432268CA21532051622168F3
:103200004862204601F0D4FC4FF0FF084FF004095B
:10321000A0BB16E00220BDE8F087002800DB2E737B
:10322000287801F0B9FC0204687801F0B5FC42EAA4
:103230000022A87801F0B0FC297B024342EA014752
:10324000D9E72168154807400F602068816821F49C
:10325000802181602068D5E90412836811431943F5
:1032600081602068C16821F08001C16020688068A9
:1032700080060BD4204600F013F838B12268C2F85B
:10328000248084F81D9001202677C4E72268C2F8C4
:10329000248084F81DA000202677BCE77F7F7F0074
:1032A00070B504460068C16821F0A001C160FEF756
:1032B0003BF94FF47A76054607E000BFFEF734F994
:1032C000401BB04201D9032070BD2068C068800651
:1032D000F4D5002070BD00002DE9F0474FF0000646
:1032E0000400354604D094F87D00B14618B107E0DB
:1032F0000120BDE8F087204684F87C9000F0E0F8DB
:10330000022084F87D00204601F070FCE06838B1AE
:10331000012802D0022803D101E0102600E0202677
:10332000A16861B1012906D002294FF4006005D0DF
:10333000032904D10EE04FF4806500E005465C49A6
:103340005B4A20682031904201D0884205D158481C
:10335000001F03E046F00106F0E756480660E0690A
:1033600048B323680020934201D08B4203D14FF42D
:103370000020FEF7BFFF4F4A2168121D914203D083
:103380004C4A2432914203D14FF48010FEF7B2FF31
:10339000E16900EB80000A2240004902B0FBF1F035
:1033A000B0FBF2F3B0FBF2F1216202FB130008283C
:1033B00001D9491C216260684FF40078E8B3022803
:1033C00071D0E06B012801D04FF000082068DFF8D1
:1033D000E8C06FF0FF01394E4EF20F0203684FF262
:1033E000200703EA0C030360236B60681843D4E9E9
:1033F0000D3C43EA0C031843636A40EA0800284383
:10340000D4E904C51843236840EA0C002843258CFE
:10341000D3F800C040EA0555484645EA0C051D6052
:1034200023685D684FF0010C95435D60D4F800801F
:10343000D8F80420A3691A4300E034E0D4E90A353F
:103440002B431A43C8F804202268936833409360E2
:10345000A36C226D256C1A43E36C6D1E2B43656CC7
:103460001A43236801EB05252A439D682A439A6085
:1034700054F8542BD3683B40D36094E86400A78988
:1034800054F8543D2A4301EB062141EA0741DD6827
:103490000A432A43DA60C4F8800084F87DC084F8C7
:1034A0007C00002025E7E06B01288DD08EE700002E
:1034B00004580140005C014010C005FF0080F8FF87
:1034C0002DE9F04320490746006800261F4C87B0CD
:1034D0001F4D88424FF002084FF00A0915D12868A5
:1034E00038B9216841F400012160216801F400012C
:1034F0000591401C2860F0230093CDE90186154812
:103500006946CDE90369FDF711FF0F49386820319D
:10351000884216D1286838B9216841F40001216039
:10352000216801F400010591401C28604FF480637C
:103530000093CDE9018608486946CDE90369FDF7A6
:10354000F5FE07B0BDE8F083045C0140443802405A
:1035500010000020002002400018024070B5040056
:103560000D4603D094F82C0010B107E0012070BD87
:10357000002084F82D00204600F011F8022084F885
:103580002C002068211DFDF7CDF9D4E90002294661
:10359000FDF70EFA012084F82C00002070BD03F026
:1035A00037BA10B5044690F82C00022809D0022042
:1035B00084F82C002068FDF7E4F9012084F82C0041
:1035C000002010BD70B5044690F82C000D4602286E
:1035D0000DD0022084F82C002068FDF7D8F9286867
:1035E000022805D05FF0010084F82C00002070BD97
:1035F0000520F9E7FEB504460D46416C032084F82A
:103600003400032920D0B5F5805F1DD0B5F5006FDB
:1036100005D045B1A06B40F00060A06309E02046F2
:1036200001F0FFFF02E0204601F0D4FFA16B01434F
:10363000A163A06B012658B1216840F2FF50886356
:1036400084F834600120FEBDA06B40F08050E4E7B8
:10365000211DD4E905070EC9CDE900500297206865
:1036600001F0E6FD84F834600020FEBD7047F0B53F
:10367000426E120E93090B70C2F3830402F0030230
:103680004C708A70426E120CCA70B0F86420120A34
:103690000A7190F864204A714FF6FF73826E120E21
:1036A00003EA0212CA80CB88826EC2F30742140971
:1036B0002343CB8002F00F020A72B0F86820002585
:1036C000C2F30722D3094B72C2F38014C2F340162F
:1036D000C2F300178C72CE720F734D730123446CCA
:1036E0004FF400766CB1012C46D0026840F2FF51D5
:1036F0009163816B41F08051816380F83430012007
:10370000F0BD9207120D0A610C6990F8682044EA36
:1037100082020A610C69C26E120E9709C2F3C20CD2
:103720003C430C6102F0070281F814C04A75C26E76
:10373000C2F30742940757098F75640FC2F38202E0
:10374000CA750C760A7EB0F86C40C4F3072442EACE
:10375000D4120A760A69521C42650F7EBF1CBA4019
:1037600042650F7A03FA07F787654FEA572C02FB89
:103770000CF2C0E917261CE090F868209206920A25
:103780000A610C69C26E120E44EA02220A610C69D7
:10379000C26EC2F3074214430C610A69B0F86C4070
:1037A000521C4FEA82224265C4F30724C0E9166224
:1037B0000666C4F380124FEA84644A764FEA546482
:1037C0008C7690F86C208C7E4FEAD21602F07F0245
:1037D00044EA06048C76CA7650F8702F4FEA1262DB
:1037E0004FEAD2140C77C2F34116C2F382074FEAB4
:1037F00082724E778F774FEA1272CA77CC7F026857
:10380000C2F3074244EA9214CC77C2F3401602F0A6
:10381000010281F8206081F8215081F8222002887D
:10382000C2F307224FEAD21481F82340C2F3801575
:10383000C2F34016C2F30017C2F3810C02F0030278
:1038400081F8245081F8256081F8267081F827C01E
:1038500081F8282000784FEA500081F8290081F88B
:103860002A304FF00000F0BD426C0A60826C4A6062
:10387000C26C8A60026DCA60426D0A61826D4A61E3
:10388000C26D8A61006EC8610020704770B5B0F8E3
:103890005010002504460068090401F015FB18B11A
:1038A000A16B0143A16304E02068002101F0BAFC90
:1038B0000546C5F3432070BD70B5040004D094F8EC
:1038C0003400002510B105E0012070BD20462577A9
:1038D00000F03CF8032084F83400204600F007F89C
:1038E0000120A563256384F83400002070BD3EB537
:1038F00004467620002100910B460A46CDE90110CE
:10390000206801F095FC2068416821F480714160D5
:10391000206801F09EFC2068416841F4807141609C
:103920000220FDF72FFC204601F001FE4FF00105BB
:1039300020B9204601F088FD002805D084F83450D5
:10394000A16B0143A16301203EBD0000F0B587B02B
:10395000044614216846FCF703FD1A492068884292
:103960002DD11948016841F400610160006800F43C
:103970000060059014481438016841F004010160AA
:10398000016801F004010591016841F0080101603E
:10399000006802240025694600F00800059003260F
:1039A0000C274FF4F8508DE8F1000848FDF7BEFCF5
:1039B000042069468DE8F1000548FDF7B7FC07B023
:1039C000F0BD0000002C01404438024000080240D5
:1039D000000C02402DE9F04387B01F46154604460F
:1039E00039B194F83400012807D0022007B0BDE8AF
:1039F000F083A06B40F0006008E0E26D0020EB195E
:103A0000A063934204D9A06B40F00070A06355E01E
:103A10000322814684F834202268D0622268D36B66
:103A200043F49573D363E36B4FEA4728244ADA6380
:103A3000E36B244ADA644FEA9803E26B10650A46A6
:103A40002068E66B00F180013046FDF75EFB2068E0
:103A5000C16A41F00801C162606C012800D06D02AA
:103A6000694601260596B01ECDE9000802A89022FD
:103A7000022380E80C02206801F0A4FA2068710299
:103A800001F008F940F2FF5880B9012F06D98220D1
:103A900020632068294601F089F905E08120206330
:103AA0002068294601F09BF900289FD02268C2F8BF
:103AB0003880A16B0143A16384F83460012095E74D
:103AC00027530008C952000810B5FCF751FD10BD7E
:103AD0002DE9F04F5FEA010B1E4687B015460446FC
:103AE00007D094F83400012807D0022007B0BDE8C1
:103AF000F08FA06B40F0006008E0E16D0020AA1993
:103B0000A0638A4204D9A06B40F00070A0633AE041
:103B10000321804684F834102168C8622168CA6B8A
:103B200042F01A02CA63226C2549D163226C2549EE
:103B3000D164216C0865606C012800D06D0220689A
:103B40004FF4007101F0A6F84FF0010740F2FF5961
:103B500088B9012E4FF0900A06D9A0202063206872
:103B6000294601F0FDF905E0C4F830A02946206897
:103B700001F00FFA48B12268C2F83890A16B0143F6
:103B8000A16384F834700120B0E72068C16A41F075
:103B90000801C16222687502206C5946AB08803268
:103BA000FDF7B3FACDE904874FF0FF326946CDE95E
:103BB00002A8CDE90025206801F004FA002095E76D
:103BC00065530008C95200082DE9F041040004D0F3
:103BD00094F84500002518B107E00120BDE8F08108
:103BE00084F84450204600F029F8022084F845006B
:103BF0002068016821F003010160D4E90131A06966
:103C0000D4E903261843636911432268084330430B
:103C10001843D4E90717D4E9093608431168384333
:103C2000054F184339403043084310600121A56413
:103C300084F845100020D1E70784F8FF10B586B05E
:103C4000044614216846FCF78BFB2068B0F1402F36
:103C50001FD11148016841F480310160006800F40F
:103C6000803005900C481038016841F0080101606F
:103C700000680823802100F00800059000200091D2
:103C800002226946CDE90120CDE903030348FDF78F
:103C90004DFB06B010BD000040380240000C024051
:103CA00070477047704700002DE9F04390F83C20C2
:103CB000012A42D0012280F83C2051F80C4BDFF859
:103CC00080804FF0000991E8680051E9022723F451
:103CD0004073B1F80CC03B43CF6923F480631343B6
:103CE000026823F40063234323F4805343EA05036B
:103CF00023F4005343EA060323F4804343EA070313
:103D00000C3923F47023424543EA0C4302D00D4C96
:103D1000A2420CD18D8C23F47006D1E9073446EA17
:103D2000055121F08071194321F00073234353643E
:103D300080F83C900020BDE8F0830220FBE7000003
:103D4000000001400004014070B590F83C20012AB9
:103D500024D0134C012580F83C50022280F83D20ED
:103D600002685368A242966802D00E4CA24203D168
:103D70004C6823F4700323430C6823F070038968B4
:103D80001C435460002326F0800602683143916092
:103D900080F83D5080F83C30184670BD022070BD60
:103DA000000001400004014010B5040003D094F865
:103DB0003D0010B107E0012010BD002084F83C0058
:103DC000204600F00DF8022084F83D002068211DF7
:103DD00001F004FE012084F83D00002010BD000029
:103DE00008B51849026818488A4207D1016841F0AD
:103DF00001010160006800F001000AE01249134B64
:103E0000091F9A4207D1086840F00200086008685C
:103E100014E0009008BD0E4B9A4207D1086840F0AC
:103E200008000860086800F00800F2E709498A42C3
:103E3000F0D1016841F002010160006800F0020069
:103E4000E7E7000000000140443802400004004061
:103E5000000C0040000401400A4B022180F83D1094
:103E600001688A681A40062A06D0B2F5803F03D05E
:103E70000A6842F001020A60012180F83D1000202A
:103E800070470000070001000168094ACB6843F051
:103E90000103CB60016888681040062806D0B0F5A1
:103EA000803F03D0086840F00100086000207047A0
:103EB0000700010070B5044690F83C00012817D0B7
:103EC000324B012584F83C50022084F83D002268E2
:103ED0009068184020F47F4090600868502830D0E7
:103EE0000DDC20284DD005DC98B310283BD148E0EC
:103EF000022070BD302844D0402834D139E06028F9
:103F000028D0702806D0B0F5805F2CD0B0F5005FC7
:103F100029D10AE04A682068D1E9021301F0C4FD02
:103F20002068816841F0770109E04A682068D1E99A
:103F3000021301F0B9FD2068816841F4804181607D
:103F400011E0CA684968206801F0F6FE2068502137
:103F500007E016E0CA684968206801F0FEFE2068A4
:103F6000602101F0AAFD002084F83D5084F83C0057
:103F700070BDCA684968206801F0DEFE20684021F3
:103F8000EFE7226801461046EBE7000088FFFEFFDE
:103F9000704770B50446006800250169C943890768
:103FA00015D4C168C943890711D4EA1E02610121F1
:103FB0002177206880698007204602D0FFF7E8FF5C
:103FC00004E000F019F9204600F0DAF925772068BE
:103FD0000169C943490717D4C168C943490713D4C4
:103FE00002216FF00402026121772068806910F4D9
:103FF000407F204602D0FFF7CBFF04E000F0FCF842
:10400000204600F0BDF9257720680169C9430907FA
:1040100016D4C168C943090712D404216FF00802FD
:10402000026121772068C0698007204602D0FFF72F
:10403000AFFF04E000F0E0F8204600F0A1F925779A
:1040400020680169C943C90617D4C168C943C906B4
:1040500013D408216FF01002026121772068C06933
:1040600010F4407F204602D0FFF792FF04E000F0FA
:10407000C3F8204600F084F9257720680169C94318
:10408000C90708D1C168C943C90704D1891E0161A4
:10409000204600F077F920680169C943090609D470
:1040A000C168C943090605D46FF08001016120464B
:1040B000FFF7F7FD20680169C943C90509D4C16844
:1040C000C943090605D46FF4807101612046FFF7EA
:1040D000E7FD20680169C943490609D4C168C9439D
:1040E000490605D46FF040010161204600F054F903
:1040F00020680169C94389060BD4C168C943890690
:1041000007D46FF0200101612046BDE87040FFF741
:10411000C9BD70BD30B587B0044614216846FCF7B0
:104120001FF92D4D0022236802202A490124AB42A9
:1041300010D10B6843F001030B60096801F0010125
:104140000591C1010091CDE9010224486946CDE9FC
:10415000032412E0224DAB4213D10B6843F002035B
:104160000B60096801F00201059110210091CDE971
:104170000102CDE903201B486946FDF7D7F807B0D7
:1041800030BD194DAB420FD10B6843F480730B6007
:104190000968009401F48071CDE901020392CDE930
:1041A000040112486946E8E7114CA342E7D10B68C5
:1041B00043F080030B60096801F080010591402104
:1041C000009109236946CDE901020A48CDE903239C
:1041D000D3E70000303802400000014000000240F8
:1041E0000004004000040240000C00400020024097
:1041F00000180040001C0240704770B5044690F85B
:104200003C000D4601280ED0012684F83C600220B7
:1042100084F83D000C2A45D007DC5AB1042A1BD093
:10422000082A78D12CE0022070BD102A4ED0142A22
:1042300071D15DE0206801F049FC2068816941F09E
:10424000080181612068816921F004018161206891
:104250002A698169114311E0206801F071FC20682E
:10426000816941F4006181612068816921F4806184
:10427000816120682969826942EA012181614AE0FD
:10428000206801F099FC2068C16941F00801C16112
:104290002068C16921F00401C16120682A69C169EF
:1042A000114311E0206801F0C3FC2068C16941F4AA
:1042B0000061C1612068C16921F48061C161206829
:1042C0002969C26942EA0121C16124E0206801F044
:1042D000DBFC2068416D41F0080141652068416DBB
:1042E00021F00401416520682A69416D114311E004
:1042F000206801F0F5FC2068416D41F400614165E2
:104300002068416D21F48061416520682969426D12
:1043100042EA01214165002084F83D6084F83C00B8
:1043200070BD10B5040003D094F83D0010B107E053
:10433000012010BD002084F83C00204600F00CF85D
:10434000022084F83D002068211D01F047FB012078
:1043500084F83D00002010BD08B500680649884279
:1043600008D10648016841F040010160006800F092
:104370004000009008BD0000001800404038024096
:104380007047000000680349884201D1FDF77CBBFB
:104390007047000000100040704710B5040002D0C4
:1043A000606F10B107E0012010BD002084F870009C
:1043B000204600F025F8242060672068016821F07D
:1043C00001010160204601F089FD0128ECD0606AFE
:1043D00010B1204601F000FD2068416821F49041B1
:1043E00041602068816821F02A01816020680168AD
:1043F00041F0010101602046BDE8104001F050BDD0
:1044000070B586B0054614216846FBF7A9FF2B4816
:1044100000242B4B2A681438284902259A422BD1B4
:104420000A6842F010020A60096801F01001059163
:10443000016841F002010160016801F0020105918B
:10444000016841F00101016000680726694600F03B
:104450000100059080200090CDE901541948CDE974
:104460000346FCF763FF28020090CDE9015416488B
:104470006946CDE903461CE0144B9A421BD10A68F9
:1044800042F020020A60096801F0200105910168EC
:1044900041F004010160006808220321029400F049
:1044A00004000590C020CDE90312CDE900050848BD
:1044B0006946FCF73BFF06B070BD0000443802407F
:1044C00000100140000402400000024000140140BE
:1044D00000080240FEE701688A69D243920701D4CE
:1044E00000228A6200688169C943C90703D08169D3
:1044F00041F00101816170472DE9F04104460068F7
:1045000090460E468069C043C00635D4002520275A
:1045100020688069C043800616D5701CF8D0FDF76E
:1045200003F8A0EB0800B04201D8002EF0D1606C77
:1045300084F8405040F02000606484F8417084F8B2
:1045400042500120BDE8F08121681020C861206838
:10455000C7612046FFF7BFFF2068084942680A404C
:104560004260606C40F00400606484F8417084F83C
:10457000425084F84050E4E70020E3E700E800FE02
:104580002DE9F843174604461548DAB2DDE90898E4
:104590001E4600900023204600F056F84246494649
:1045A000204600F0BBF8B8B9012EFDB208D0206853
:1045B000390A816242464946204600F0AFF858B9B0
:1045C00020688562002240214B462046CDF80080BD
:1045D00000F050F8002800D00120BDE8F88300006A
:1045E000002000802DE9F8430446164817461E4671
:1045F000DAB20090C3022046DDE9089800F024F802
:1046000042464946204600F089F8B8B9012EFDB26D
:1046100008D02068390A816242464946204600F0A7
:104620007DF858B920688562002280214B462046DB
:10463000CDF8008000F01EF8002800D00120BDE871
:10464000F88300000020008070B50068C1F3090104
:10465000074E41EA0241049C4FF4806542681943C9
:1046600005EA54553543AA4321430A43426070BDCD
:10467000FF63FF032DE9F0411D4617460E46044631
:10468000DDF8188008E0681C06D0FCF74DFFA0EBB1
:104690000800A8420BD855B12068806936EA0000AE
:1046A00013D00020B842EED00020BDE8F081626C4B
:1046B000002084F84000202142F02002626484F847
:1046C000411084F842000120EFE70120EAE770B5CD
:1046D00016460D4604460DE0324629462046FFF7B1
:1046E0000BFF08B1012070BDFCF71EFF801BA84224
:1046F00007D835B120688069C0438006ECD400201B
:1047000070BD626C002084F84000202142F020023D
:10471000626484F8411084F84200E3E770B51646FD
:104720000D4604460FE0324629462046FFF7E4FED8
:1047300008B1012070BD681C05D0FCF7F5FE801B98
:10474000A84207D835B120688069C0438007EAD401
:10475000002070BD626C002084F84000202142F0EF
:104760002002626484F8411084F84200E1E710B549
:104770000446FCF735FF2046BDE81040AFF300804B
:1047800010B50446FCF746FF002818D10C488442B7
:1047900001D10C4800E00C4801210C4A20600020A7
:1047A0006260C4E9020120616061E061206220462C
:1047B00000F00EF82046BDE81040FCF72FBF10BDFA
:1047C000E0960020005C00400054004032279140F9
:1047D000F0B542490022424B87B0424D4FF48076FB
:1047E000414C9842D1F800C04FF012004FF0020344
:1047F0004FF0040737D14CF0800CC1F800C00968B5
:104800000DF1080C01F0800105918021CDE9001027
:104810008CE88C00354F69463846FCF787FD6946C1
:1048200038460096FCF782FD286840F400002860B6
:10483000286800F400000590206840F40000206023
:10484000206820F40000206000220F214820FDF79E
:1048500017FC4820FDF707FC00220F214920FDF737
:104860000FFC492035E04CF0020CC1F800C009688B
:10487000CDE9022301F00201CDE90471CDE9006028
:104880001B4E69463046FCF751FD70156946009095
:104890003046FCF74BFD286840F40010286028687B
:1048A00000F400100590206840F40010206020689B
:1048B00020F40010206000220F211F20FDF7E0FBF4
:1048C0001F20FDF7D0FB00220F212020FDF7D8FB91
:1048D0002020FDF7C8FB07B0F0BD000030380240D3
:1048E000E09600204038024020380240001C024080
:1048F00000040240FEB50D4606464FF47A74DDE929
:1049000008018DE8130029463046FCF7E3FE040059
:1049100003D029463046FFF72AFF2046FEBDFEB5EC
:104920000D4606464FF47A74DDE908018DE8130060
:1049300029463046FCF780FF040003D02946304664
:10494000FFF715FF2046FEBD4FF4F07070474FF49F
:10495000887070470148FDF71BB90000281400203B
:104960002DE9FE4F81460068882493468D888C226D
:1049700004EBCB178A46C3689421BE46C459C3F3DF
:104980000B432B4404F470441F04019702EBCB1239
:1049900040F80E4001EBCB13DAF800709C214FF089
:1049A000AC0C01EBCB1440F2077102910CEBCB1174
:1049B000D9F800C098250020CDF800C0A02605EB4E
:1049C000CB15DCF80CC006EBCB16CCF30B4C0CF182
:1049D000010C07EB0C08DDF800C0019F48EA07084E
:1049E0004CF80E80D9F80070BAF80CC0B846FF68D1
:1049F000C7F30A0767444FEA074E58F8027007F4F6
:104A0000704C48F802C0D9F800C0DAF80870DCF839
:104A10000C80C8F30A0808F10108B84448EA0E08F7
:104A20004CF80280D9F80020D75827F00707D75054
:104A3000D9F80070DAF81020FA509AF831209AF874
:104A400018304FEA022C9AF83220120442EA03622C
:104A5000D9F800301F5918519AF8303043EA0C0346
:104A60001343D9F800201351D9F80020535923F0EB
:104A7000FF035351D9F80020DAF814305351D9F814
:104A800000209359029CA3439351D9F80030DAE9EE
:104A9000072422439A51D9F8002053585050D9F88E
:104AA0000020DAF824005050DAF81000C8B30128CA
:104AB0003AD004283AD0022838D0032836D0072824
:104AC00034D00120D9F80030B02505EBCB11B42249
:104AD00084245D5802EBCB1205F0E0255D50DAE945
:104AE000003504EBCB14EB1ABAF828504343454386
:104AF000D9F80000DB1C43EA05434350D9F8000015
:104B000081586FF30A018150D9F80000DAF82C10AF
:104B10008150D9F80000015941F001010151BDE86F
:104B2000FE8FFFE70420CDE70320CBE70220C9E793
:104B30000449054810B5FBF7D2FE0249491E08702A
:104B400010BD00001D000020E8F40008FEE77047DB
:104B50002DE9F041984616460F460446069D12E0A0
:104B6000681C10D02DB1FCF7DFFCA0EB0800A842B8
:104B700009D9042084F84100606C40F001006064B1
:104B80000120BDE8F08120688068384000D0012015
:104B9000B042E5D10020F4E7002102E00A38491CC8
:104BA000C0B20A28FAD2090740EA11607047000033
:104BB00070B504460068C168490614D44FF0FF314F
:104BC000C160FCF7B1FC4FF47A76054607E000BF00
:104BD000FCF7AAFC401BB04201D9032070BD20683D
:104BE000C0684006F4D5002070BD000030B50E4905
:104BF00041F6583302680C6800211568B4FBF3F3E2
:104C000025F4803414609A00521E07D2D0F8802018
:104C1000032142F04002C0F8802003E003681B68D3
:104C2000DB03F1D4084630BD5400002030B585B018
:104C30000446372040220DF1080CCDE90010002376
:104C40006946150120468CE82C0000F009FB37214D
:104C500041F28832204600F0C9F905B030BD0000AD
:104C600030B50B4A85B004462920114340220DF18E
:104C7000080CCDE9001000236946150120468CE898
:104C80002C0000F0EDFA204600F066FA05B030BDC9
:104C90000000108030B585B0044610200DF1080CDE
:104CA0008501CDE9001040226946002320468CE8AA
:104CB0002C0000F0D5FA102141F28832204600F095
:104CC00095F905B030BD30B585B0044606204022C8
:104CD0000DF1080CCDE900100023694615012046AE
:104CE0008CE82C0000F0BCFA062141F28832204604
:104CF00000F07CF905B030BD30B585B00546002424
:104D000069464FF48060009401940294CDE9034019
:104D1000284600F0A5FA0B4A4FF4FA5041F28831C8
:104D20001268B2FBF0F04843401E03D24FF000403F
:104D300005B030BD696B0906F6D540F2FF5120463B
:104D4000A963F5E75400002070B50821044685B03A
:104D50004FF4D5704026CA018DE84300002569460E
:104D6000CDE90352204600F07BFA0F4A4FF4FA5087
:104D700041F288311268B2FBF0F04843401E02D283
:104D80004FF000450CE0616B11F0450FF6D0606B01
:104D9000400701D5042502E0606B400600D5A663FC
:104DA00005B0284670BD00005400002030B585B025
:104DB0000446122040220DF1080CCDE9001000231A
:104DC0006946150120468CE82C0000F049FA1221B2
:104DD00041F28832204600F009F905B030BD30B507
:104DE00085B00446112040220DF1080CCDE90010D9
:104DF00000236946150120468CE82C0000F030FAAB
:104E0000112141F28832204600F0F0F805B030BDA3
:104E100030B585B0044640210DF1040C0720009206
:104E200000230D018CE82B006946204600F018FA9B
:104E3000072141F28832204600F0D8F805B030BD95
:104E400010B586B0044600210220C022430204931C
:104E5000CDE90010CDE902216946204600F000FAB4
:104E6000204600F051F906B010BD30B585B00446BB
:104E700009200DF1080CC022CDE90010002369467D
:104E80004FF4806520468CE82C0000F0E9F92046BC
:104E900000F03AF905B030BD10B586B004460021E7
:104EA00033204022CDE90221CDE9001013016946EB
:104EB0002046049300F0D4F9332141F28832204691
:104EC00000F094F806B010BD30B585B004460D2052
:104ED00040220DF1080CCDE90010002369461501B0
:104EE00020468CE82C0000F0BBF90D2141F28832FD
:104EF000204600F07BF805B030BD30B585B00C46DB
:104F00000021054603204022CDE90221CDE9001011
:104F1000130169462846049300F0A2F903212246B2
:104F2000284600F039F905B030BD000010B586B054
:104F3000044600210C204022CDE90221CDE90010D9
:104F4000130169462046049300F08AF9034A0C21B4
:104F5000204600F04BF806B010BD000000E1F5055A
:104F600030B585B00446192040220DF1080CCDE97A
:104F7000001000236946150120468CE82C0000F043
:104F80006FF9192141F28832204600F02FF805B060
:104F900030BD30B585B00446182040220DF1080C14
:104FA000CDE9001000236946150120468CE82C004D
:104FB00000F056F9182141F28832204600F016F828
:104FC00005B030BD70B50A6842624A688262C46A40
:104FD000D1E90225D1E9043624F0F7012A4333430D
:104FE0001A431143C162002070BD000010B5444C4B
:104FF0004FF4FA532468B4FBF3F353435B1E02D21D
:105000004FF0004010BD426B12F0450FF6D0426BDE
:10501000520703D504218163084610BD426BD207B5
:1050200002D00121816303E00269D2B28A4201D039
:10503000012010BD40F2FF518163002100F0F2F821
:105040003049084201D1002010BD002802DA4FF09B
:10505000007010BD410001D5402010BD810001D578
:10506000802010BDC10002D54FF4807010BD010139
:1050700002D54FF4007010BD410102D54FF480609D
:1050800010BDC10102D54FF4006010BD010202D570
:105090004FF4805010BD410202D54FF4005010BDB6
:1050A000810202D54FF4804010BDC10202D54FF4F9
:1050B000004010BD410302D54FF4003010BD810304
:1050C00002D54FF4802010BDC10302D54FF400205B
:1050D00010BD010402D54FF4801010BD410402D56B
:1050E0004FF4001010BD810402D54FF4800010BDB4
:1050F000000702D54FF4000010BD4FF4803010BD02
:105100005400002008E0FFFD124B4FF4FA5141F229
:1051100088321B68B3FBF1F15143491E02D24FF0B4
:1051200000407047426B12F0450FF6D0416B4907C3
:1051300003D50421816308467047416BC90703D03A
:10514000012181630846704740F2FF5181630020CE
:1051500070470000540000200E4B4FF4FA5141F20A
:1051600088321B68B3FBF1F15143491E02D24FF064
:1051700000407047426B12F0450FF6D0416B490773
:1051800003D5042181630846704740F2FF518163D3
:10519000002070475400002030B51F4D4FF4FA53E3
:1051A00041F288342D68B5FBF3F363435B1E02D2F2
:1051B0004FF0004030BD446B14F0450FF6D0436B08
:1051C0005B0703D504218163084630BD436BDB07D1
:1051D00002D00121816303E00369DBB28B4201D07D
:1051E000012030BD40F2FF518163002100F01AF828
:1051F00010F4604F04D0410406D54FF4005030BD88
:10520000000C1080002030BD000402D54FF4805007
:1052100030BD4FF4803030BD54000020006800F0F5
:1052200003007047084408B514300090006808BDBA
:1052300070B511434268049EDDE90554334347F6D7
:10524000FF6619432943B24321430A4342600020C9
:1052500070BD0321016000207047D0F880007047C6
:1052600070B50A688260C468D1E90125D1E90336C6
:10527000210B2A43334309031A431143C160002021
:1052800070BD000010B5064C01202070FBF730F90E
:1052900018B9207820F001002070207810BD00009F
:1052A0001400002070B5054608F011F8044603E02C
:1052B000FBF71EF9002806D008F009F8001BA842E9
:1052C000F6D34FF0FF3070BD10B5846BFBF71BFFBA
:1052D000022827D0E06B406D012803D0206C406D80
:1052E00001281CD1216840F2FF5088632068C16BFF
:1052F00021F49D71C163A06B40F08040A063204603
:10530000FEF7C4FA062801D0052805D12068FFF76A
:105310000DFEA16B0843A063012084F834002046F1
:10532000FEF7A4F910BD10B5846B206B822809D15B
:105330002068FFF7FBFD28B1A16B0143A163204664
:10534000FEF794F92068012140F2FF52C36A23F06E
:105350000803C3622068826384F834102046FEF795
:10536000B3FB10BD806B0068C16B41F48071C163F9
:1053700070472DE9F04F89B00E460446FCF7D4F88B
:105380000027009701970821834620683D46FFF7D4
:1053900081FC002835D1B4F8501020680904FFF7CB
:1053A00045FC00282DD14FF008084FF002094FF0BE
:1053B000010C421E3023CDE90228CDE90439CDE9A4
:1053C000067C206802A9FFF7FDFD2068FFF764FD59
:1053D000002816D1EA4640F22A472068416B39423C
:1053E00012D1416B890204D5FFF737FF4AF8250037
:1053F0006D1CFCF799F8A0EB0B00401CEDD14FF0B1
:10540000004009B0BDE8F08F416B090703D5C0F833
:1054100038800820F5E7416B890703D5C0F838903C
:105420000220EEE7416B890603D5202181630846FF
:10543000E7E740F2FF518163009800BA706001987D
:1054400000BA30600020DCE710B590B004460120BF
:10545000ADF838002068FFF7E1FE002864D0606CEA
:10546000032842D02068FFF7EBFC00285AD12068BF
:105470000021FFF7D7FE606704212068FFF7D2FE06
:10548000A06708212068FFF7CDFEE0670C212068A7
:10549000FFF7C8FE616CC4F88000032925D020689E
:1054A0000EA9FFF72AFD00283CD1606C03281CD010
:1054B000BDF83810216520680904FFF7D6FC0028E4
:1054C00030D120680021FFF7ADFE6066042120681E
:1054D000FFF7A8FEA06608212068FFF7A3FEE0669C
:1054E0000C212068FFF79EFE206704212068FFF74B
:1054F00099FE000DE06403A92046FEF7B8F8B4F861
:105500005000002302042068FFF782FC002809D124
:1055100004F1100007C88DE8070094E80F00FFF7BA
:1055200087FE002010B010BD4FF08060FAE72DE933
:10553000F8430025044600950068FFF7DDFB0028CE
:105540001BD12068FFF700FC4FF080784FF6FF7604
:10555000E0B14FF08057A5640098B04200F101001F
:1055600000901BD020680021FFF760FB20B9206865
:105570000021FFF775FB10B13846BDE8F8832068BD
:105580000021FFF74FFEC00FE6D020E00127A764FF
:105590000098B04200F10100009001D14046ECE7D4
:1055A00020680021FFF742FB0028E6D120684FF079
:1055B0008041FFF755FB0028DFD120680021FFF76D
:1055C00031FEC10FE4D0400001D5676400E065649E
:1055D0000020D2E71CB50446002000900021019075
:1055E0002068FFF71FFE800102D54FF400601CBD4C
:1055F00069462046FFF7BDFE0028F8D10198C00398
:105600000CD5B4F8501020680904FFF70FFB0028F0
:10561000EDD120680021FFF756FB1CBD4FF08060E4
:105620001CBD1CB50446002000900021019020689C
:10563000FFF7F8FD800102D54FF400601CBD6946FC
:105640002046FFF796FE0028F8D1019840030CD5BC
:10565000B4F8501020680904FFF7E8FA0028EDD1EB
:1056600020680221FFF72FFB1CBD4FF080601CBD9E
:105670007CB50F4C05460120207007F01AFEA8B13A
:10568000FAF742FF18B92846FFF7FCFD2070207892
:1056900001280BD0606848B90648D0E90010CDE970
:1056A00000100021684607F01EFE606020787CBD77
:1056B00014000020FCF40008144810B588B014460B
:1056C0000078C00702D0032008B010BD39B101290D
:1056D00007D002290BD0032910D00420F4E70020C2
:1056E000F2E76846FAF7FEFE069900200CE06846ED
:1056F000FAF7F8FE079900202180E5E76846FAF7F7
:10570000F1FE07990020490A2160DDE7140000201E
:105710002DE9FE4F47F23055984601271446894639
:105720002846FFF7BFFD00283BDB1F4E5FEA89706C
:1057300003D0AB46B24600252DE0424621464846FE
:10574000FAF708FF68BB71682A46684607F0D0FD83
:10575000DDE90010102924D1012821D021E01348CF
:1057600001222146641CFAF7F5FE060015D1DAF88D
:1057700004105A46684607F0BBFDDDE90010102909
:1057800008D1012806D1420208494846FAF7CFFD60
:1057900009F500796D1C4545E1D3454501D106B9B0
:1057A00000273846BDE8FE8F14000020380700208F
:1057B000FFF768BD2DE9FE4F47F2305798460126A6
:1057C000144689463846FFF76DFD002848DB264D14
:1057D0005FEA897003D0BB46AA4600253AE04246FC
:1057E00021464846FAF7CEFED0BB69683C463A46A9
:1057F000684607F07DFDDDE90010102930D1022850
:105800002ED107F064FD044403E000BFFAF770FEF8
:1058100028B307F05CFDA042F8D321E01348012231
:105820002146641CFAF7AEFE070015D1DAF8041021
:105830005A46684607F05CFDDDE90010102908D1E2
:10584000022806D1020209494846FAF770FD09F517
:1058500000796D1C4545E1D3454501D107B90026C6
:105860003046BDE8FE8F00001400002038070020FD
:10587000502010B572B680F31188BFF34F8FBFF37D
:105880006F8F62B608F06CFF18B104494FF080507A
:105890000860002080F3118810BD000004ED00E0D6
:1058A000F0B5B3B0302121A8FAF75AFD14212DA884
:1058B000FAF756FD84216846FAF752FDFCF748FCDA
:1058C0002B48016841F080510160006800F0805071
:1058D00032902848016841F4404101600068022488
:1058E00001262696E10300F4404032908A01092007
:1058F0001923CDE927421D01CDE92101CDE92B4036
:10590000CDE9293521A8FDF711F9FCF7EBFBE202FF
:105910004FF4A0510025CDE930122DAA0F20062109
:1059200082E831002DA8FCF7F3FF134A64230193AA
:105930004FF4C070009223040494052102940322C2
:1059400003941F12CDE9050407AC980284E84600D1
:10595000119516950C97109519951B95CDE91F0576
:10596000CDE90A636846FCF755FD33B0F0BD000091
:1059700040380240007000406848B101104A30B51C
:105980001048146800210F4B44F47004146008336D
:1059900005680D4A0D4C45F0010505601960036866
:1059A000051D1340074A03600C322C600568E305AF
:1059B000034C25F480250560803C1160236030BDD8
:1059C00088ED00E000380240FFFFF6FE10300024B2
:1059D0000148FEF7DEBA0000F8060020F0B5274BBC
:1059E0004FF0804E264D02689842264E264F274C97
:1059F00009D0704507D0A84205D0B04203D0B842C4
:105A000001D0A04205D1D1F804C022F070024CEAC6
:105A1000020298421BD0704519D0A84217D0B0425C
:105A200015D0B84213D0A04211D0194DA8420ED0C3
:105A3000184DA8420BD0184DA84208D0174DA842C7
:105A400005D0174DA84202D0164DA84203D1CD680B
:105A500022F440722A434D6922F080022A430260F8
:105A600098428A68C2620A68826201D0A04201D16B
:105A70000969016301214161F0BD0000000001409E
:105A80000004004000080040000C004000040140F9
:105A9000004001400044014000480140001800401F
:105AA000001C00400020004042EA032283680A43B1
:105AB00023F47F410A4382607047826822F07002BB
:105AC0000A4342F00701816070470000F0B5026AA6
:105AD000DFF860C0184F22F00102DFF860E00262D8
